{"contracts/services/AddService.sol":{"AddService":{"abi":[{"inputs":[],"stateMutability":"nonpayable","type":"constructor"},{"anonymous":false,"inputs":[{"indexed":true,"internalType":"address","name":"user","type":"address"},{"indexed":true,"internalType":"uint256","name":"serviceId","type":"uint256"},{"indexed":false,"internalType":"uint256","name":"amount","type":"uint256"}],"name":"BalanceDeducted","type":"event"},{"anonymous":false,"inputs":[{"indexed":true,"internalType":"address","name":"user","type":"address"},{"indexed":true,"internalType":"uint256","name":"serviceId","type":"uint256"},{"indexed":false,"internalType":"uint256","name":"amount","type":"uint256"}],"name":"BalanceDeposited","type":"event"},{"anonymous":false,"inputs":[{"indexed":true,"internalType":"address","name":"user","type":"address"},{"indexed":true,"internalType":"uint256","name":"serviceId","type":"uint256"},{"indexed":false,"internalType":"uint256","name":"nextDeduction","type":"uint256"}],"name":"DeductionScheduled","type":"event"},{"anonymous":false,"inputs":[{"indexed":true,"internalType":"address","name":"previousOwner","type":"address"},{"indexed":true,"internalType":"address","name":"newOwner","type":"address"}],"name":"OwnershipTransferred","type":"event"},{"anonymous":false,"inputs":[{"indexed":true,"internalType":"address","name":"user","type":"address"},{"indexed":true,"internalType":"uint256","name":"serviceId","type":"uint256"}],"name":"ServiceJoined","type":"event"},{"anonymous":false,"inputs":[{"indexed":true,"internalType":"uint256","name":"serviceId","type":"uint256"},{"indexed":false,"internalType":"uint256","name":"cost","type":"uint256"},{"indexed":false,"internalType":"uint256","name":"interval","type":"uint256"}],"name":"ServiceRegistered","type":"event"},{"anonymous":false,"inputs":[{"indexed":true,"internalType":"uint256","name":"serviceId","type":"uint256"},{"indexed":false,"internalType":"bool","name":"isActive","type":"bool"}],"name":"ServiceStatusToggled","type":"event"},{"anonymous":false,"inputs":[{"indexed":true,"internalType":"address","name":"newTopAccAddress","type":"address"}],"name":"TopAccAddressUpdated","type":"event"},{"inputs":[],"name":"USDC_SEPOLIA","outputs":[{"internalType":"address","name":"","type":"address"}],"stateMutability":"view","type":"function"},{"inputs":[{"internalType":"uint256","name":"","type":"uint256"}],"name":"activeSchedules","outputs":[{"internalType":"address","name":"user","type":"address"},{"internalType":"uint256","name":"serviceId","type":"uint256"}],"stateMutability":"view","type":"function"},{"inputs":[{"internalType":"uint256","name":"serviceId","type":"uint256"},{"internalType":"address","name":"user","type":"address"}],"name":"addToService","outputs":[],"stateMutability":"nonpayable","type":"function"},{"inputs":[{"internalType":"address","name":"user","type":"address"},{"internalType":"uint256","name":"serviceId","type":"uint256"}],"name":"cancelScheduledDeduction","outputs":[],"stateMutability":"nonpayable","type":"function"},{"inputs":[{"internalType":"bytes","name":"","type":"bytes"}],"name":"checkUpkeep","outputs":[{"internalType":"bool","name":"upkeepNeeded","type":"bool"},{"internalType":"bytes","name":"performData","type":"bytes"}],"stateMutability":"view","type":"function"},{"inputs":[{"internalType":"address","name":"user","type":"address"},{"internalType":"uint256","name":"serviceId","type":"uint256"},{"internalType":"uint256","name":"amount","type":"uint256"}],"name":"deductBalance","outputs":[{"internalType":"bool","name":"","type":"bool"}],"stateMutability":"nonpayable","type":"function"},{"inputs":[{"internalType":"address","name":"","type":"address"},{"internalType":"uint256","name":"","type":"uint256"}],"name":"deductionSchedules","outputs":[{"internalType":"uint256","name":"nextDeductionTimestamp","type":"uint256"},{"internalType":"uint256","name":"amount","type":"uint256"},{"internalType":"bool","name":"isActive","type":"bool"},{"internalType":"uint256","name":"interval","type":"uint256"}],"stateMutability":"view","type":"function"},{"inputs":[{"internalType":"uint256","name":"serviceId","type":"uint256"}],"name":"getServiceInfo","outputs":[{"internalType":"uint256","name":"cost","type":"uint256"},{"internalType":"uint256","name":"interval","type":"uint256"},{"internalType":"bool","name":"isActive","type":"bool"},{"internalType":"uint256","name":"totalSubscribers","type":"uint256"}],"stateMutability":"view","type":"function"},{"inputs":[{"internalType":"address","name":"user","type":"address"},{"internalType":"uint256","name":"serviceId","type":"uint256"}],"name":"getUserBalance","outputs":[{"internalType":"uint256","name":"","type":"uint256"}],"stateMutability":"view","type":"function"},{"inputs":[{"internalType":"address","name":"user","type":"address"},{"internalType":"uint256","name":"serviceId","type":"uint256"}],"name":"hasUserJoined","outputs":[{"internalType":"bool","name":"","type":"bool"}],"stateMutability":"view","type":"function"},{"inputs":[],"name":"owner","outputs":[{"internalType":"address","name":"","type":"address"}],"stateMutability":"view","type":"function"},{"inputs":[{"internalType":"bytes","name":"performData","type":"bytes"}],"name":"performUpkeep","outputs":[],"stateMutability":"nonpayable","type":"function"},{"inputs":[{"internalType":"uint256","name":"cost","type":"uint256"},{"internalType":"uint256","name":"interval","type":"uint256"}],"name":"registerService","outputs":[{"internalType":"uint256","name":"","type":"uint256"}],"stateMutability":"nonpayable","type":"function"},{"inputs":[],"name":"renounceOwnership","outputs":[],"stateMutability":"nonpayable","type":"function"},{"inputs":[{"internalType":"address","name":"user","type":"address"},{"internalType":"uint256","name":"serviceId","type":"uint256"},{"internalType":"uint256","name":"amount","type":"uint256"},{"internalType":"uint256","name":"intervalInSeconds","type":"uint256"}],"name":"scheduleDeduction","outputs":[],"stateMutability":"nonpayable","type":"function"},{"inputs":[{"internalType":"uint256","name":"serviceId","type":"uint256"}],"name":"toggleServiceActive","outputs":[],"stateMutability":"nonpayable","type":"function"},{"inputs":[],"name":"topAccAddress","outputs":[{"internalType":"address","name":"","type":"address"}],"stateMutability":"view","type":"function"},{"inputs":[{"internalType":"address","name":"newOwner","type":"address"}],"name":"transferOwnership","outputs":[],"stateMutability":"nonpayable","type":"function"}],"evm":{"bytecode":{"linkReferences":{},"object":"608060405234801561001057600080fd5b5061001a33610024565b6000600255610074565b600080546001600160a01b038381166001600160a01b0319831681178455604051919092169283917f8be0079c531659141344cd1fd0a4f28419497f9722a3daafe3b4186f6b6457e09190a35050565b611bf2806100836000396000f3fe608060405234801561001057600080fd5b50600436106101165760003560e01c806382a8ea58116100a2578063c1da8b5011610071578063c1da8b50146102c0578063cf9f7dbf146102e3578063f2fde38b1461031c578063fc2e63741461032f578063fcf404961461034257600080fd5b806382a8ea58146102765780638da5cb5b1461028957806391a9648a1461029a5780639e7dbe85146102ad57600080fd5b80634585e33b116100e95780634585e33b1461020657806352293821146102195780636e04ff0d1461022c578063715018a61461024d578063773ab5a91461025557600080fd5b80630970af261461011b57806319da4b841461018c57806340da490f146101a1578063430c1274146101d3575b600080fd5b610161610129366004611629565b600660209081526000928352604080842090915290825290208054600182015460028301546003909301549192909160ff9091169084565b6040805194855260208501939093529015159183019190915260608201526080015b60405180910390f35b61019f61019a366004611653565b610355565b005b6101b46101af36600461168c565b6105ec565b604080516001600160a01b039093168352602083019190915201610183565b6101ee731c7d4b196cb0c7b01d743fbc6116a902379c723881565b6040516001600160a01b039091168152602001610183565b61019f6102143660046116a5565b610624565b61019f610227366004611717565b610813565b61023f61023a3660046116a5565b61095f565b604051610183929190611793565b61019f610c0b565b6102686102633660046117ae565b610c1f565b604051908152602001610183565b61016161028436600461168c565b610d81565b6000546001600160a01b03166101ee565b6102686102a8366004611629565b610de4565b61019f6102bb36600461168c565b610e3d565b6102d36102ce3660046117d0565b610ed3565b6040519015158152602001610183565b6102d36102f1366004611629565b6001600160a01b03919091166000908152600560209081526040808320938352929052205460ff1690565b61019f61032a366004611803565b611028565b6001546101ee906001600160a01b031681565b61019f610350366004611629565b6110a1565b61035d611299565b600254831115801561036f5750600083115b6103945760405162461bcd60e51b815260040161038b90611825565b60405180910390fd5b60008381526004602052604090206002015460ff166103c55760405162461bcd60e51b815260040161038b90611851565b600081116104155760405162461bcd60e51b815260206004820152601f60248201527f496e74657276616c206d7573742062652067726561746572207468616e203000604482015260640161038b565b600082116104655760405162461bcd60e51b815260206004820152601d60248201527f416d6f756e74206d7573742062652067726561746572207468616e2030000000604482015260640161038b565b6001600160a01b038416600090815260066020908152604080832086845290915290206002015460ff1661052757604080518082019091526001600160a01b038581168252602082018581526007805460018101825560009190915292517fa66cc928b5edb82af9bd49922954155ab7b0942694bea4ce44661d9a8736c688600290940293840180546001600160a01b0319169190931617909155517fa66cc928b5edb82af9bd49922954155ab7b0942694bea4ce44661d9a8736c689909101555b6040518060800160405280824261053e9190611896565b815260208082018590526001604080840182905260609384018690526001600160a01b0389166000818152600685528281208a8252855282902086518155938601519284019290925584015160028301805460ff1916911515919091179055929091015160039091015583907f8d24538ca0444c131049a15bc87a3ed3221d7eff59c510a645b546a973e841636105d58442611896565b60405190815260200160405180910390a350505050565b600781815481106105fc57600080fd5b6000918252602090912060029091020180546001909101546001600160a01b03909116915082565b600080806106348486018661197f565b92509250925060005b835181101561080b57600084828151811061065a5761065a611a63565b60200260200101519050600084838151811061067857610678611a63565b60200260200101519050600084848151811061069657610696611a63565b6020908102919091018101516001600160a01b03851660009081526006835260408082208683529093529190912060028101549192509060ff1615806106dc5750805442105b156106ea57505050506107f9565b6001600160a01b038416600090815260036020908152604080832086845290915290205482111561076b5760028101805460ff191690556040516000815283906001600160a01b038616907f23cfa964e3bcdbaa14a806c6691a9bb1d1d719685be655d2ba2a58cc275a88939060200160405180910390a3505050506107f9565b6001600160a01b03841660009081526003602090815260408083208684529091528120805484929061079e908490611a79565b909155505060038101546107b29042611896565b815560405182815283906001600160a01b038616907f23cfa964e3bcdbaa14a806c6691a9bb1d1d719685be655d2ba2a58cc275a88939060200160405180910390a3505050505b8061080381611a8c565b91505061063d565b505050505050565b60025482111580156108255750600082115b6108415760405162461bcd60e51b815260040161038b90611825565b60008281526004602052604090206002015460ff166108725760405162461bcd60e51b815260040161038b90611851565b600082815260046020526040902054731c7d4b196cb0c7b01d743fbc6116a902379c72386108a2813330856112f3565b6001600160a01b0383166000908152600360209081526040808320878452909152812080548492906108d5908490611896565b90915550506001600160a01b03831660009081526005602090815260408083208784528252808320805460ff191660011790556004909152812060030180549161091e83611a8c565b909155505060405184906001600160a01b038516907fc6402d8b5962c43cd787ebf3c30e80fb508841f89b0f3048dd361d263a3aa56590600090a350505050565b60408051600a8082526101608201909252600091606091839082602082016101408036833701905050905060008267ffffffffffffffff8111156109a5576109a56118a9565b6040519080825280602002602001820160405280156109ce578160200160208202803683370190505b50905060008367ffffffffffffffff8111156109ec576109ec6118a9565b604051908082528060200260200182016040528015610a15578160200160208202803683370190505b5090506000805b60075481108015610a2c57508582105b15610ba457600060078281548110610a4657610a46611a63565b60009182526020808320604080518082018252600294850290920180546001600160a01b0316808452600191820154848601908152908752600685528287209051875284529481902081516080810183528154815295810154938601939093529282015460ff1615801593850184905260039092015460608501529350610ace575080514210155b15610b8f5760208082015183516001600160a01b03166000908152600383526040808220868501518352909352919091205410610b8f578160000151878581518110610b1c57610b1c611a63565b60200260200101906001600160a01b031690816001600160a01b0316815250508160200151868581518110610b5357610b53611a63565b6020026020010181815250508060200151858581518110610b7657610b76611a63565b602090810291909101015283610b8b81611a8c565b9450505b50508080610b9c90611a8c565b915050610a1c565b508015610be8578084528083528082526001848484604051602001610bcb93929190611ae0565b604051602081830303815290604052965096505050505050610c04565b6000604051806020016040528060008152509650965050505050505b9250929050565b610c13611299565b610c1d6000611353565b565b6000610c29611299565b60008311610c795760405162461bcd60e51b815260206004820152601b60248201527f436f7374206d7573742062652067726561746572207468616e20300000000000604482015260640161038b565b60008211610cc95760405162461bcd60e51b815260206004820152601f60248201527f496e74657276616c206d7573742062652067726561746572207468616e203000604482015260640161038b565b60028054906000610cd983611a8c565b9091555050604080516080810182528481526020808201858152600183850181815260006060860181815260028054835260048752918890209651875593519286019290925551848201805460ff1916911515919091179055905160039093019290925590548251868152918201859052917fb8fd0a0770e4ec762ab06bb2a301a24760166db13c987f1b8ad07fbb0d61e0fc910160405180910390a2506002545b92915050565b6000806000806002548511158015610d995750600085115b610db55760405162461bcd60e51b815260040161038b90611825565b5050506000918252506004602052604090208054600182015460028301546003909301549193909260ff169190565b60006002548211158015610df85750600082115b610e145760405162461bcd60e51b815260040161038b90611825565b506001600160a01b03919091166000908152600360209081526040808320938352929052205490565b610e45611299565b6002548111158015610e575750600081115b610e735760405162461bcd60e51b815260040161038b90611825565b600081815260046020908152604091829020600201805460ff8082161560ff199092168217909255925192161515825282917f9eb8f70f4826be4f1625e8c63cab3d68f02a013b0f46ef2d5ff1e520d1f3a21f910160405180910390a250565b6000610edd611299565b6002548311158015610eef5750600083115b610f0b5760405162461bcd60e51b815260040161038b90611825565b60008381526004602052604090206002015460ff16610f3c5760405162461bcd60e51b815260040161038b90611851565b6001600160a01b0384166000908152600360209081526040808320868452909152902054821115610fa65760405162461bcd60e51b8152602060048201526014602482015273496e73756666696369656e742062616c616e636560601b604482015260640161038b565b6001600160a01b038416600090815260036020908152604080832086845290915281208054849290610fd9908490611a79565b909155505060405182815283906001600160a01b038616907f23cfa964e3bcdbaa14a806c6691a9bb1d1d719685be655d2ba2a58cc275a88939060200160405180910390a35060019392505050565b611030611299565b6001600160a01b0381166110955760405162461bcd60e51b815260206004820152602660248201527f4f776e61626c653a206e6577206f776e657220697320746865207a65726f206160448201526564647265737360d01b606482015260840161038b565b61109e81611353565b50565b6110a9611299565b6001600160a01b038216600090815260066020908152604080832084845290915290206002015460ff166111145760405162461bcd60e51b81526020600482015260126024820152714e6f20616374697665207363686564756c6560701b604482015260640161038b565b60005b60075481101561125757826001600160a01b03166007828154811061113e5761113e611a63565b60009182526020909120600290910201546001600160a01b03161480156111885750816007828154811061117457611174611a63565b906000526020600020906002020160010154145b15611245576007805461119d90600190611a79565b815481106111ad576111ad611a63565b9060005260206000209060020201600782815481106111ce576111ce611a63565b60009182526020909120825460029092020180546001600160a01b0319166001600160a01b03909216919091178155600191820154910155600780548061121757611217611b55565b60008281526020812060026000199093019283020180546001600160a01b0319168155600101559055611257565b8061124f81611a8c565b915050611117565b506001600160a01b0390911660009081526006602090815260408083209383529290529081208181556001810182905560028101805460ff1916905560030155565b6000546001600160a01b03163314610c1d5760405162461bcd60e51b815260206004820181905260248201527f4f776e61626c653a2063616c6c6572206973206e6f7420746865206f776e6572604482015260640161038b565b604080516001600160a01b0385811660248301528416604482015260648082018490528251808303909101815260849091019091526020810180516001600160e01b03166323b872dd60e01b17905261134d9085906113a3565b50505050565b600080546001600160a01b038381166001600160a01b0319831681178455604051919092169283917f8be0079c531659141344cd1fd0a4f28419497f9722a3daafe3b4186f6b6457e09190a35050565b60006113f8826040518060400160405280602081526020017f5361666545524332303a206c6f772d6c6576656c2063616c6c206661696c6564815250856001600160a01b031661147d9092919063ffffffff16565b90508051600014806114195750808060200190518101906114199190611b6b565b6114785760405162461bcd60e51b815260206004820152602a60248201527f5361666545524332303a204552433230206f7065726174696f6e20646964206e6044820152691bdd081cdd58d8d9595960b21b606482015260840161038b565b505050565b606061148c8484600085611494565b949350505050565b6060824710156114f55760405162461bcd60e51b815260206004820152602660248201527f416464726573733a20696e73756666696369656e742062616c616e636520666f6044820152651c8818d85b1b60d21b606482015260840161038b565b600080866001600160a01b031685876040516115119190611b8d565b60006040518083038185875af1925050503d806000811461154e576040519150601f19603f3d011682016040523d82523d6000602084013e611553565b606091505b50915091506115648783838761156f565b979650505050505050565b606083156115de5782516000036115d7576001600160a01b0385163b6115d75760405162461bcd60e51b815260206004820152601d60248201527f416464726573733a2063616c6c20746f206e6f6e2d636f6e7472616374000000604482015260640161038b565b508161148c565b61148c83838151156115f35781518083602001fd5b8060405162461bcd60e51b815260040161038b9190611ba9565b80356001600160a01b038116811461162457600080fd5b919050565b6000806040838503121561163c57600080fd5b6116458361160d565b946020939093013593505050565b6000806000806080858703121561166957600080fd5b6116728561160d565b966020860135965060408601359560600135945092505050565b60006020828403121561169e57600080fd5b5035919050565b600080602083850312156116b857600080fd5b823567ffffffffffffffff808211156116d057600080fd5b818501915085601f8301126116e457600080fd5b8135818111156116f357600080fd5b86602082850101111561170557600080fd5b60209290920196919550909350505050565b6000806040838503121561172a57600080fd5b8235915061173a6020840161160d565b90509250929050565b60005b8381101561175e578181015183820152602001611746565b50506000910152565b6000815180845261177f816020860160208601611743565b601f01601f19169290920160200192915050565b821515815260406020820152600061148c6040830184611767565b600080604083850312156117c157600080fd5b50508035926020909101359150565b6000806000606084860312156117e557600080fd5b6117ee8461160d565b95602085013595506040909401359392505050565b60006020828403121561181557600080fd5b61181e8261160d565b9392505050565b602080825260129082015271125b9d985b1a59081cd95c9d9a58d948125160721b604082015260600190565b60208082526015908201527453657276696365206973206e6f742061637469766560581b604082015260600190565b634e487b7160e01b600052601160045260246000fd5b80820180821115610d7b57610d7b611880565b634e487b7160e01b600052604160045260246000fd5b604051601f8201601f1916810167ffffffffffffffff811182821017156118e8576118e86118a9565b604052919050565b600067ffffffffffffffff82111561190a5761190a6118a9565b5060051b60200190565b600082601f83011261192557600080fd5b8135602061193a611935836118f0565b6118bf565b82815260059290921b8401810191818101908684111561195957600080fd5b8286015b84811015611974578035835291830191830161195d565b509695505050505050565b60008060006060848603121561199457600080fd5b833567ffffffffffffffff808211156119ac57600080fd5b818601915086601f8301126119c057600080fd5b813560206119d0611935836118f0565b82815260059290921b8401810191818101908a8411156119ef57600080fd5b948201945b83861015611a1457611a058661160d565b825294820194908201906119f4565b97505087013592505080821115611a2a57600080fd5b611a3687838801611914565b93506040860135915080821115611a4c57600080fd5b50611a5986828701611914565b9150509250925092565b634e487b7160e01b600052603260045260246000fd5b81810381811115610d7b57610d7b611880565b600060018201611a9e57611a9e611880565b5060010190565b600081518084526020808501945080840160005b83811015611ad557815187529582019590820190600101611ab9565b509495945050505050565b606080825284519082018190526000906020906080840190828801845b82811015611b225781516001600160a01b031684529284019290840190600101611afd565b50505083810382850152611b368187611aa5565b9150508281036040840152611b4b8185611aa5565b9695505050505050565b634e487b7160e01b600052603160045260246000fd5b600060208284031215611b7d57600080fd5b8151801515811461181e57600080fd5b60008251611b9f818460208701611743565b9190910192915050565b60208152600061181e602083018461176756fea26469706673582212200012775544334d764908e02519f14fb432612bc5f7b651f9fd449c6fac64e86c64736f6c63430008140033","opcodes":"PUSH1 0x80 PUSH1 0x40 MSTORE CALLVALUE DUP1 ISZERO PUSH2 0x10 JUMPI PUSH1 0x0 DUP1 REVERT JUMPDEST POP PUSH2 0x1A CALLER PUSH2 0x24 JUMP JUMPDEST PUSH1 0x0 PUSH1 0x2 SSTORE PUSH2 0x74 JUMP JUMPDEST PUSH1 0x0 DUP1 SLOAD PUSH1 0x1 PUSH1 0x1 PUSH1 0xA0 SHL SUB DUP4 DUP2 AND PUSH1 0x1 PUSH1 0x1 PUSH1 0xA0 SHL SUB NOT DUP4 AND DUP2 OR DUP5 SSTORE PUSH1 0x40 MLOAD SWAP2 SWAP1 SWAP3 AND SWAP3 DUP4 SWAP2 PUSH32 0x8BE0079C531659141344CD1FD0A4F28419497F9722A3DAAFE3B4186F6B6457E0 SWAP2 SWAP1 LOG3 POP POP JUMP JUMPDEST PUSH2 0x1BF2 DUP1 PUSH2 0x83 PUSH1 0x0 CODECOPY PUSH1 0x0 RETURN INVALID PUSH1 0x80 PUSH1 0x40 MSTORE CALLVALUE DUP1 ISZERO PUSH2 0x10 JUMPI PUSH1 0x0 DUP1 REVERT JUMPDEST POP PUSH1 0x4 CALLDATASIZE LT PUSH2 0x116 JUMPI PUSH1 0x0 CALLDATALOAD PUSH1 0xE0 SHR DUP1 PUSH4 0x82A8EA58 GT PUSH2 0xA2 JUMPI DUP1 PUSH4 0xC1DA8B50 GT PUSH2 0x71 JUMPI DUP1 PUSH4 0xC1DA8B50 EQ PUSH2 0x2C0 JUMPI DUP1 PUSH4 0xCF9F7DBF EQ PUSH2 0x2E3 JUMPI DUP1 PUSH4 0xF2FDE38B EQ PUSH2 0x31C JUMPI DUP1 PUSH4 0xFC2E6374 EQ PUSH2 0x32F JUMPI DUP1 PUSH4 0xFCF40496 EQ PUSH2 0x342 JUMPI PUSH1 0x0 DUP1 REVERT JUMPDEST DUP1 PUSH4 0x82A8EA58 EQ PUSH2 0x276 JUMPI DUP1 PUSH4 0x8DA5CB5B EQ PUSH2 0x289 JUMPI DUP1 PUSH4 0x91A9648A EQ PUSH2 0x29A JUMPI DUP1 PUSH4 0x9E7DBE85 EQ PUSH2 0x2AD JUMPI PUSH1 0x0 DUP1 REVERT JUMPDEST DUP1 PUSH4 0x4585E33B GT PUSH2 0xE9 JUMPI DUP1 PUSH4 0x4585E33B EQ PUSH2 0x206 JUMPI DUP1 PUSH4 0x52293821 EQ PUSH2 0x219 JUMPI DUP1 PUSH4 0x6E04FF0D EQ PUSH2 0x22C JUMPI DUP1 PUSH4 0x715018A6 EQ PUSH2 0x24D JUMPI DUP1 PUSH4 0x773AB5A9 EQ PUSH2 0x255 JUMPI PUSH1 0x0 DUP1 REVERT JUMPDEST DUP1 PUSH4 0x970AF26 EQ PUSH2 0x11B JUMPI DUP1 PUSH4 0x19DA4B84 EQ PUSH2 0x18C JUMPI DUP1 PUSH4 0x40DA490F EQ PUSH2 0x1A1 JUMPI DUP1 PUSH4 0x430C1274 EQ PUSH2 0x1D3 JUMPI JUMPDEST PUSH1 0x0 DUP1 REVERT JUMPDEST PUSH2 0x161 PUSH2 0x129 CALLDATASIZE PUSH1 0x4 PUSH2 0x1629 JUMP JUMPDEST PUSH1 0x6 PUSH1 0x20 SWAP1 DUP2 MSTORE PUSH1 0x0 SWAP3 DUP4 MSTORE PUSH1 0x40 DUP1 DUP5 KECCAK256 SWAP1 SWAP2 MSTORE SWAP1 DUP3 MSTORE SWAP1 KECCAK256 DUP1 SLOAD PUSH1 0x1 DUP3 ADD SLOAD PUSH1 0x2 DUP4 ADD SLOAD PUSH1 0x3 SWAP1 SWAP4 ADD SLOAD SWAP2 SWAP3 SWAP1 SWAP2 PUSH1 0xFF SWAP1 SWAP2 AND SWAP1 DUP5 JUMP JUMPDEST PUSH1 0x40 DUP1 MLOAD SWAP5 DUP6 MSTORE PUSH1 0x20 DUP6 ADD SWAP4 SWAP1 SWAP4 MSTORE SWAP1 ISZERO ISZERO SWAP2 DUP4 ADD SWAP2 SWAP1 SWAP2 MSTORE PUSH1 0x60 DUP3 ADD MSTORE PUSH1 0x80 ADD JUMPDEST PUSH1 0x40 MLOAD DUP1 SWAP2 SUB SWAP1 RETURN JUMPDEST PUSH2 0x19F PUSH2 0x19A CALLDATASIZE PUSH1 0x4 PUSH2 0x1653 JUMP JUMPDEST PUSH2 0x355 JUMP JUMPDEST STOP JUMPDEST PUSH2 0x1B4 PUSH2 0x1AF CALLDATASIZE PUSH1 0x4 PUSH2 0x168C JUMP JUMPDEST PUSH2 0x5EC JUMP JUMPDEST PUSH1 0x40 DUP1 MLOAD PUSH1 0x1 PUSH1 0x1 PUSH1 0xA0 SHL SUB SWAP1 SWAP4 AND DUP4 MSTORE PUSH1 0x20 DUP4 ADD SWAP2 SWAP1 SWAP2 MSTORE ADD PUSH2 0x183 JUMP JUMPDEST PUSH2 0x1EE PUSH20 0x1C7D4B196CB0C7B01D743FBC6116A902379C7238 DUP2 JUMP JUMPDEST PUSH1 0x40 MLOAD PUSH1 0x1 PUSH1 0x1 PUSH1 0xA0 SHL SUB SWAP1 SWAP2 AND DUP2 MSTORE PUSH1 0x20 ADD PUSH2 0x183 JUMP JUMPDEST PUSH2 0x19F PUSH2 0x214 CALLDATASIZE PUSH1 0x4 PUSH2 0x16A5 JUMP JUMPDEST PUSH2 0x624 JUMP JUMPDEST PUSH2 0x19F PUSH2 0x227 CALLDATASIZE PUSH1 0x4 PUSH2 0x1717 JUMP JUMPDEST PUSH2 0x813 JUMP JUMPDEST PUSH2 0x23F PUSH2 0x23A CALLDATASIZE PUSH1 0x4 PUSH2 0x16A5 JUMP JUMPDEST PUSH2 0x95F JUMP JUMPDEST PUSH1 0x40 MLOAD PUSH2 0x183 SWAP3 SWAP2 SWAP1 PUSH2 0x1793 JUMP JUMPDEST PUSH2 0x19F PUSH2 0xC0B JUMP JUMPDEST PUSH2 0x268 PUSH2 0x263 CALLDATASIZE PUSH1 0x4 PUSH2 0x17AE JUMP JUMPDEST PUSH2 0xC1F JUMP JUMPDEST PUSH1 0x40 MLOAD SWAP1 DUP2 MSTORE PUSH1 0x20 ADD PUSH2 0x183 JUMP JUMPDEST PUSH2 0x161 PUSH2 0x284 CALLDATASIZE PUSH1 0x4 PUSH2 0x168C JUMP JUMPDEST PUSH2 0xD81 JUMP JUMPDEST PUSH1 0x0 SLOAD PUSH1 0x1 PUSH1 0x1 PUSH1 0xA0 SHL SUB AND PUSH2 0x1EE JUMP JUMPDEST PUSH2 0x268 PUSH2 0x2A8 CALLDATASIZE PUSH1 0x4 PUSH2 0x1629 JUMP JUMPDEST PUSH2 0xDE4 JUMP JUMPDEST PUSH2 0x19F PUSH2 0x2BB CALLDATASIZE PUSH1 0x4 PUSH2 0x168C JUMP JUMPDEST PUSH2 0xE3D JUMP JUMPDEST PUSH2 0x2D3 PUSH2 0x2CE CALLDATASIZE PUSH1 0x4 PUSH2 0x17D0 JUMP JUMPDEST PUSH2 0xED3 JUMP JUMPDEST PUSH1 0x40 MLOAD SWAP1 ISZERO ISZERO DUP2 MSTORE PUSH1 0x20 ADD PUSH2 0x183 JUMP JUMPDEST PUSH2 0x2D3 PUSH2 0x2F1 CALLDATASIZE PUSH1 0x4 PUSH2 0x1629 JUMP JUMPDEST PUSH1 0x1 PUSH1 0x1 PUSH1 0xA0 SHL SUB SWAP2 SWAP1 SWAP2 AND PUSH1 0x0 SWAP1 DUP2 MSTORE PUSH1 0x5 PUSH1 0x20 SWAP1 DUP2 MSTORE PUSH1 0x40 DUP1 DUP4 KECCAK256 SWAP4 DUP4 MSTORE SWAP3 SWAP1 MSTORE KECCAK256 SLOAD PUSH1 0xFF AND SWAP1 JUMP JUMPDEST PUSH2 0x19F PUSH2 0x32A CALLDATASIZE PUSH1 0x4 PUSH2 0x1803 JUMP JUMPDEST PUSH2 0x1028 JUMP JUMPDEST PUSH1 0x1 SLOAD PUSH2 0x1EE SWAP1 PUSH1 0x1 PUSH1 0x1 PUSH1 0xA0 SHL SUB AND DUP2 JUMP JUMPDEST PUSH2 0x19F PUSH2 0x350 CALLDATASIZE PUSH1 0x4 PUSH2 0x1629 JUMP JUMPDEST PUSH2 0x10A1 JUMP JUMPDEST PUSH2 0x35D PUSH2 0x1299 JUMP JUMPDEST PUSH1 0x2 SLOAD DUP4 GT ISZERO DUP1 ISZERO PUSH2 0x36F JUMPI POP PUSH1 0x0 DUP4 GT JUMPDEST PUSH2 0x394 JUMPI PUSH1 0x40 MLOAD PUSH3 0x461BCD PUSH1 0xE5 SHL DUP2 MSTORE PUSH1 0x4 ADD PUSH2 0x38B SWAP1 PUSH2 0x1825 JUMP JUMPDEST PUSH1 0x40 MLOAD DUP1 SWAP2 SUB SWAP1 REVERT JUMPDEST PUSH1 0x0 DUP4 DUP2 MSTORE PUSH1 0x4 PUSH1 0x20 MSTORE PUSH1 0x40 SWAP1 KECCAK256 PUSH1 0x2 ADD SLOAD PUSH1 0xFF AND PUSH2 0x3C5 JUMPI PUSH1 0x40 MLOAD PUSH3 0x461BCD PUSH1 0xE5 SHL DUP2 MSTORE PUSH1 0x4 ADD PUSH2 0x38B SWAP1 PUSH2 0x1851 JUMP JUMPDEST PUSH1 0x0 DUP2 GT PUSH2 0x415 JUMPI PUSH1 0x40 MLOAD PUSH3 0x461BCD PUSH1 0xE5 SHL DUP2 MSTORE PUSH1 0x20 PUSH1 0x4 DUP3 ADD MSTORE PUSH1 0x1F PUSH1 0x24 DUP3 ADD MSTORE PUSH32 0x496E74657276616C206D7573742062652067726561746572207468616E203000 PUSH1 0x44 DUP3 ADD MSTORE PUSH1 0x64 ADD PUSH2 0x38B JUMP JUMPDEST PUSH1 0x0 DUP3 GT PUSH2 0x465 JUMPI PUSH1 0x40 MLOAD PUSH3 0x461BCD PUSH1 0xE5 SHL DUP2 MSTORE PUSH1 0x20 PUSH1 0x4 DUP3 ADD MSTORE PUSH1 0x1D PUSH1 0x24 DUP3 ADD MSTORE PUSH32 0x416D6F756E74206D7573742062652067726561746572207468616E2030000000 PUSH1 0x44 DUP3 ADD MSTORE PUSH1 0x64 ADD PUSH2 0x38B JUMP JUMPDEST PUSH1 0x1 PUSH1 0x1 PUSH1 0xA0 SHL SUB DUP5 AND PUSH1 0x0 SWAP1 DUP2 MSTORE PUSH1 0x6 PUSH1 0x20 SWAP1 DUP2 MSTORE PUSH1 0x40 DUP1 DUP4 KECCAK256 DUP7 DUP5 MSTORE SWAP1 SWAP2 MSTORE SWAP1 KECCAK256 PUSH1 0x2 ADD SLOAD PUSH1 0xFF AND PUSH2 0x527 JUMPI PUSH1 0x40 DUP1 MLOAD DUP1 DUP3 ADD SWAP1 SWAP2 MSTORE PUSH1 0x1 PUSH1 0x1 PUSH1 0xA0 SHL SUB DUP6 DUP2 AND DUP3 MSTORE PUSH1 0x20 DUP3 ADD DUP6 DUP2 MSTORE PUSH1 0x7 DUP1 SLOAD PUSH1 0x1 DUP2 ADD DUP3 SSTORE PUSH1 0x0 SWAP2 SWAP1 SWAP2 MSTORE SWAP3 MLOAD PUSH32 0xA66CC928B5EDB82AF9BD49922954155AB7B0942694BEA4CE44661D9A8736C688 PUSH1 0x2 SWAP1 SWAP5 MUL SWAP4 DUP5 ADD DUP1 SLOAD PUSH1 0x1 PUSH1 0x1 PUSH1 0xA0 SHL SUB NOT AND SWAP2 SWAP1 SWAP4 AND OR SWAP1 SWAP2 SSTORE MLOAD PUSH32 0xA66CC928B5EDB82AF9BD49922954155AB7B0942694BEA4CE44661D9A8736C689 SWAP1 SWAP2 ADD SSTORE JUMPDEST PUSH1 0x40 MLOAD DUP1 PUSH1 0x80 ADD PUSH1 0x40 MSTORE DUP1 DUP3 TIMESTAMP PUSH2 0x53E SWAP2 SWAP1 PUSH2 0x1896 JUMP JUMPDEST DUP2 MSTORE PUSH1 0x20 DUP1 DUP3 ADD DUP6 SWAP1 MSTORE PUSH1 0x1 PUSH1 0x40 DUP1 DUP5 ADD DUP3 SWAP1 MSTORE PUSH1 0x60 SWAP4 DUP5 ADD DUP7 SWAP1 MSTORE PUSH1 0x1 PUSH1 0x1 PUSH1 0xA0 SHL SUB DUP10 AND PUSH1 0x0 DUP2 DUP2 MSTORE PUSH1 0x6 DUP6 MSTORE DUP3 DUP2 KECCAK256 DUP11 DUP3 MSTORE DUP6 MSTORE DUP3 SWAP1 KECCAK256 DUP7 MLOAD DUP2 SSTORE SWAP4 DUP7 ADD MLOAD SWAP3 DUP5 ADD SWAP3 SWAP1 SWAP3 SSTORE DUP5 ADD MLOAD PUSH1 0x2 DUP4 ADD DUP1 SLOAD PUSH1 0xFF NOT AND SWAP2 ISZERO ISZERO SWAP2 SWAP1 SWAP2 OR SWAP1 SSTORE SWAP3 SWAP1 SWAP2 ADD MLOAD PUSH1 0x3 SWAP1 SWAP2 ADD SSTORE DUP4 SWAP1 PUSH32 0x8D24538CA0444C131049A15BC87A3ED3221D7EFF59C510A645B546A973E84163 PUSH2 0x5D5 DUP5 TIMESTAMP PUSH2 0x1896 JUMP JUMPDEST PUSH1 0x40 MLOAD SWAP1 DUP2 MSTORE PUSH1 0x20 ADD PUSH1 0x40 MLOAD DUP1 SWAP2 SUB SWAP1 LOG3 POP POP POP POP JUMP JUMPDEST PUSH1 0x7 DUP2 DUP2 SLOAD DUP2 LT PUSH2 0x5FC JUMPI PUSH1 0x0 DUP1 REVERT JUMPDEST PUSH1 0x0 SWAP2 DUP3 MSTORE PUSH1 0x20 SWAP1 SWAP2 KECCAK256 PUSH1 0x2 SWAP1 SWAP2 MUL ADD DUP1 SLOAD PUSH1 0x1 SWAP1 SWAP2 ADD SLOAD PUSH1 0x1 PUSH1 0x1 PUSH1 0xA0 SHL SUB SWAP1 SWAP2 AND SWAP2 POP DUP3 JUMP JUMPDEST PUSH1 0x0 DUP1 DUP1 PUSH2 0x634 DUP5 DUP7 ADD DUP7 PUSH2 0x197F JUMP JUMPDEST SWAP3 POP SWAP3 POP SWAP3 POP PUSH1 0x0 JUMPDEST DUP4 MLOAD DUP2 LT ISZERO PUSH2 0x80B JUMPI PUSH1 0x0 DUP5 DUP3 DUP2 MLOAD DUP2 LT PUSH2 0x65A JUMPI PUSH2 0x65A PUSH2 0x1A63 JUMP JUMPDEST PUSH1 0x20 MUL PUSH1 0x20 ADD ADD MLOAD SWAP1 POP PUSH1 0x0 DUP5 DUP4 DUP2 MLOAD DUP2 LT PUSH2 0x678 JUMPI PUSH2 0x678 PUSH2 0x1A63 JUMP JUMPDEST PUSH1 0x20 MUL PUSH1 0x20 ADD ADD MLOAD SWAP1 POP PUSH1 0x0 DUP5 DUP5 DUP2 MLOAD DUP2 LT PUSH2 0x696 JUMPI PUSH2 0x696 PUSH2 0x1A63 JUMP JUMPDEST PUSH1 0x20 SWAP1 DUP2 MUL SWAP2 SWAP1 SWAP2 ADD DUP2 ADD MLOAD PUSH1 0x1 PUSH1 0x1 PUSH1 0xA0 SHL SUB DUP6 AND PUSH1 0x0 SWAP1 DUP2 MSTORE PUSH1 0x6 DUP4 MSTORE PUSH1 0x40 DUP1 DUP3 KECCAK256 DUP7 DUP4 MSTORE SWAP1 SWAP4 MSTORE SWAP2 SWAP1 SWAP2 KECCAK256 PUSH1 0x2 DUP2 ADD SLOAD SWAP2 SWAP3 POP SWAP1 PUSH1 0xFF AND ISZERO DUP1 PUSH2 0x6DC JUMPI POP DUP1 SLOAD TIMESTAMP LT JUMPDEST ISZERO PUSH2 0x6EA JUMPI POP POP POP POP PUSH2 0x7F9 JUMP JUMPDEST PUSH1 0x1 PUSH1 0x1 PUSH1 0xA0 SHL SUB DUP5 AND PUSH1 0x0 SWAP1 DUP2 MSTORE PUSH1 0x3 PUSH1 0x20 SWAP1 DUP2 MSTORE PUSH1 0x40 DUP1 DUP4 KECCAK256 DUP7 DUP5 MSTORE SWAP1 SWAP2 MSTORE SWAP1 KECCAK256 SLOAD DUP3 GT ISZERO PUSH2 0x76B JUMPI PUSH1 0x2 DUP2 ADD DUP1 SLOAD PUSH1 0xFF NOT AND SWAP1 SSTORE PUSH1 0x40 MLOAD PUSH1 0x0 DUP2 MSTORE DUP4 SWAP1 PUSH1 0x1 PUSH1 0x1 PUSH1 0xA0 SHL SUB DUP7 AND SWAP1 PUSH32 0x23CFA964E3BCDBAA14A806C6691A9BB1D1D719685BE655D2BA2A58CC275A8893 SWAP1 PUSH1 0x20 ADD PUSH1 0x40 MLOAD DUP1 SWAP2 SUB SWAP1 LOG3 POP POP POP POP PUSH2 0x7F9 JUMP JUMPDEST PUSH1 0x1 PUSH1 0x1 PUSH1 0xA0 SHL SUB DUP5 AND PUSH1 0x0 SWAP1 DUP2 MSTORE PUSH1 0x3 PUSH1 0x20 SWAP1 DUP2 MSTORE PUSH1 0x40 DUP1 DUP4 KECCAK256 DUP7 DUP5 MSTORE SWAP1 SWAP2 MSTORE DUP2 KECCAK256 DUP1 SLOAD DUP5 SWAP3 SWAP1 PUSH2 0x79E SWAP1 DUP5 SWAP1 PUSH2 0x1A79 JUMP JUMPDEST SWAP1 SWAP2 SSTORE POP POP PUSH1 0x3 DUP2 ADD SLOAD PUSH2 0x7B2 SWAP1 TIMESTAMP PUSH2 0x1896 JUMP JUMPDEST DUP2 SSTORE PUSH1 0x40 MLOAD DUP3 DUP2 MSTORE DUP4 SWAP1 PUSH1 0x1 PUSH1 0x1 PUSH1 0xA0 SHL SUB DUP7 AND SWAP1 PUSH32 0x23CFA964E3BCDBAA14A806C6691A9BB1D1D719685BE655D2BA2A58CC275A8893 SWAP1 PUSH1 0x20 ADD PUSH1 0x40 MLOAD DUP1 SWAP2 SUB SWAP1 LOG3 POP POP POP POP JUMPDEST DUP1 PUSH2 0x803 DUP2 PUSH2 0x1A8C JUMP JUMPDEST SWAP2 POP POP PUSH2 0x63D JUMP JUMPDEST POP POP POP POP POP POP JUMP JUMPDEST PUSH1 0x2 SLOAD DUP3 GT ISZERO DUP1 ISZERO PUSH2 0x825 JUMPI POP PUSH1 0x0 DUP3 GT JUMPDEST PUSH2 0x841 JUMPI PUSH1 0x40 MLOAD PUSH3 0x461BCD PUSH1 0xE5 SHL DUP2 MSTORE PUSH1 0x4 ADD PUSH2 0x38B SWAP1 PUSH2 0x1825 JUMP JUMPDEST PUSH1 0x0 DUP3 DUP2 MSTORE PUSH1 0x4 PUSH1 0x20 MSTORE PUSH1 0x40 SWAP1 KECCAK256 PUSH1 0x2 ADD SLOAD PUSH1 0xFF AND PUSH2 0x872 JUMPI PUSH1 0x40 MLOAD PUSH3 0x461BCD PUSH1 0xE5 SHL DUP2 MSTORE PUSH1 0x4 ADD PUSH2 0x38B SWAP1 PUSH2 0x1851 JUMP JUMPDEST PUSH1 0x0 DUP3 DUP2 MSTORE PUSH1 0x4 PUSH1 0x20 MSTORE PUSH1 0x40 SWAP1 KECCAK256 SLOAD PUSH20 0x1C7D4B196CB0C7B01D743FBC6116A902379C7238 PUSH2 0x8A2 DUP2 CALLER ADDRESS DUP6 PUSH2 0x12F3 JUMP JUMPDEST PUSH1 0x1 PUSH1 0x1 PUSH1 0xA0 SHL SUB DUP4 AND PUSH1 0x0 SWAP1 DUP2 MSTORE PUSH1 0x3 PUSH1 0x20 SWAP1 DUP2 MSTORE PUSH1 0x40 DUP1 DUP4 KECCAK256 DUP8 DUP5 MSTORE SWAP1 SWAP2 MSTORE DUP2 KECCAK256 DUP1 SLOAD DUP5 SWAP3 SWAP1 PUSH2 0x8D5 SWAP1 DUP5 SWAP1 PUSH2 0x1896 JUMP JUMPDEST SWAP1 SWAP2 SSTORE POP POP PUSH1 0x1 PUSH1 0x1 PUSH1 0xA0 SHL SUB DUP4 AND PUSH1 0x0 SWAP1 DUP2 MSTORE PUSH1 0x5 PUSH1 0x20 SWAP1 DUP2 MSTORE PUSH1 0x40 DUP1 DUP4 KECCAK256 DUP8 DUP5 MSTORE DUP3 MSTORE DUP1 DUP4 KECCAK256 DUP1 SLOAD PUSH1 0xFF NOT AND PUSH1 0x1 OR SWAP1 SSTORE PUSH1 0x4 SWAP1 SWAP2 MSTORE DUP2 KECCAK256 PUSH1 0x3 ADD DUP1 SLOAD SWAP2 PUSH2 0x91E DUP4 PUSH2 0x1A8C JUMP JUMPDEST SWAP1 SWAP2 SSTORE POP POP PUSH1 0x40 MLOAD DUP5 SWAP1 PUSH1 0x1 PUSH1 0x1 PUSH1 0xA0 SHL SUB DUP6 AND SWAP1 PUSH32 0xC6402D8B5962C43CD787EBF3C30E80FB508841F89B0F3048DD361D263A3AA565 SWAP1 PUSH1 0x0 SWAP1 LOG3 POP POP POP POP JUMP JUMPDEST PUSH1 0x40 DUP1 MLOAD PUSH1 0xA DUP1 DUP3 MSTORE PUSH2 0x160 DUP3 ADD SWAP1 SWAP3 MSTORE PUSH1 0x0 SWAP2 PUSH1 0x60 SWAP2 DUP4 SWAP1 DUP3 PUSH1 0x20 DUP3 ADD PUSH2 0x140 DUP1 CALLDATASIZE DUP4 CALLDATACOPY ADD SWAP1 POP POP SWAP1 POP PUSH1 0x0 DUP3 PUSH8 0xFFFFFFFFFFFFFFFF DUP2 GT ISZERO PUSH2 0x9A5 JUMPI PUSH2 0x9A5 PUSH2 0x18A9 JUMP JUMPDEST PUSH1 0x40 MLOAD SWAP1 DUP1 DUP3 MSTORE DUP1 PUSH1 0x20 MUL PUSH1 0x20 ADD DUP3 ADD PUSH1 0x40 MSTORE DUP1 ISZERO PUSH2 0x9CE JUMPI DUP2 PUSH1 0x20 ADD PUSH1 0x20 DUP3 MUL DUP1 CALLDATASIZE DUP4 CALLDATACOPY ADD SWAP1 POP JUMPDEST POP SWAP1 POP PUSH1 0x0 DUP4 PUSH8 0xFFFFFFFFFFFFFFFF DUP2 GT ISZERO PUSH2 0x9EC JUMPI PUSH2 0x9EC PUSH2 0x18A9 JUMP JUMPDEST PUSH1 0x40 MLOAD SWAP1 DUP1 DUP3 MSTORE DUP1 PUSH1 0x20 MUL PUSH1 0x20 ADD DUP3 ADD PUSH1 0x40 MSTORE DUP1 ISZERO PUSH2 0xA15 JUMPI DUP2 PUSH1 0x20 ADD PUSH1 0x20 DUP3 MUL DUP1 CALLDATASIZE DUP4 CALLDATACOPY ADD SWAP1 POP JUMPDEST POP SWAP1 POP PUSH1 0x0 DUP1 JUMPDEST PUSH1 0x7 SLOAD DUP2 LT DUP1 ISZERO PUSH2 0xA2C JUMPI POP DUP6 DUP3 LT JUMPDEST ISZERO PUSH2 0xBA4 JUMPI PUSH1 0x0 PUSH1 0x7 DUP3 DUP2 SLOAD DUP2 LT PUSH2 0xA46 JUMPI PUSH2 0xA46 PUSH2 0x1A63 JUMP JUMPDEST PUSH1 0x0 SWAP2 DUP3 MSTORE PUSH1 0x20 DUP1 DUP4 KECCAK256 PUSH1 0x40 DUP1 MLOAD DUP1 DUP3 ADD DUP3 MSTORE PUSH1 0x2 SWAP5 DUP6 MUL SWAP1 SWAP3 ADD DUP1 SLOAD PUSH1 0x1 PUSH1 0x1 PUSH1 0xA0 SHL SUB AND DUP1 DUP5 MSTORE PUSH1 0x1 SWAP2 DUP3 ADD SLOAD DUP5 DUP7 ADD SWAP1 DUP2 MSTORE SWAP1 DUP8 MSTORE PUSH1 0x6 DUP6 MSTORE DUP3 DUP8 KECCAK256 SWAP1 MLOAD DUP8 MSTORE DUP5 MSTORE SWAP5 DUP2 SWAP1 KECCAK256 DUP2 MLOAD PUSH1 0x80 DUP2 ADD DUP4 MSTORE DUP2 SLOAD DUP2 MSTORE SWAP6 DUP2 ADD SLOAD SWAP4 DUP7 ADD SWAP4 SWAP1 SWAP4 MSTORE SWAP3 DUP3 ADD SLOAD PUSH1 0xFF AND ISZERO DUP1 ISZERO SWAP4 DUP6 ADD DUP5 SWAP1 MSTORE PUSH1 0x3 SWAP1 SWAP3 ADD SLOAD PUSH1 0x60 DUP6 ADD MSTORE SWAP4 POP PUSH2 0xACE JUMPI POP DUP1 MLOAD TIMESTAMP LT ISZERO JUMPDEST ISZERO PUSH2 0xB8F JUMPI PUSH1 0x20 DUP1 DUP3 ADD MLOAD DUP4 MLOAD PUSH1 0x1 PUSH1 0x1 PUSH1 0xA0 SHL SUB AND PUSH1 0x0 SWAP1 DUP2 MSTORE PUSH1 0x3 DUP4 MSTORE PUSH1 0x40 DUP1 DUP3 KECCAK256 DUP7 DUP6 ADD MLOAD DUP4 MSTORE SWAP1 SWAP4 MSTORE SWAP2 SWAP1 SWAP2 KECCAK256 SLOAD LT PUSH2 0xB8F JUMPI DUP2 PUSH1 0x0 ADD MLOAD DUP8 DUP6 DUP2 MLOAD DUP2 LT PUSH2 0xB1C JUMPI PUSH2 0xB1C PUSH2 0x1A63 JUMP JUMPDEST PUSH1 0x20 MUL PUSH1 0x20 ADD ADD SWAP1 PUSH1 0x1 PUSH1 0x1 PUSH1 0xA0 SHL SUB AND SWAP1 DUP2 PUSH1 0x1 PUSH1 0x1 PUSH1 0xA0 SHL SUB AND DUP2 MSTORE POP POP DUP2 PUSH1 0x20 ADD MLOAD DUP7 DUP6 DUP2 MLOAD DUP2 LT PUSH2 0xB53 JUMPI PUSH2 0xB53 PUSH2 0x1A63 JUMP JUMPDEST PUSH1 0x20 MUL PUSH1 0x20 ADD ADD DUP2 DUP2 MSTORE POP POP DUP1 PUSH1 0x20 ADD MLOAD DUP6 DUP6 DUP2 MLOAD DUP2 LT PUSH2 0xB76 JUMPI PUSH2 0xB76 PUSH2 0x1A63 JUMP JUMPDEST PUSH1 0x20 SWAP1 DUP2 MUL SWAP2 SWAP1 SWAP2 ADD ADD MSTORE DUP4 PUSH2 0xB8B DUP2 PUSH2 0x1A8C JUMP JUMPDEST SWAP5 POP POP JUMPDEST POP POP DUP1 DUP1 PUSH2 0xB9C SWAP1 PUSH2 0x1A8C JUMP JUMPDEST SWAP2 POP POP PUSH2 0xA1C JUMP JUMPDEST POP DUP1 ISZERO PUSH2 0xBE8 JUMPI DUP1 DUP5 MSTORE DUP1 DUP4 MSTORE DUP1 DUP3 MSTORE PUSH1 0x1 DUP5 DUP5 DUP5 PUSH1 0x40 MLOAD PUSH1 0x20 ADD PUSH2 0xBCB SWAP4 SWAP3 SWAP2 SWAP1 PUSH2 0x1AE0 JUMP JUMPDEST PUSH1 0x40 MLOAD PUSH1 0x20 DUP2 DUP4 SUB SUB DUP2 MSTORE SWAP1 PUSH1 0x40 MSTORE SWAP7 POP SWAP7 POP POP POP POP POP POP PUSH2 0xC04 JUMP JUMPDEST PUSH1 0x0 PUSH1 0x40 MLOAD DUP1 PUSH1 0x20 ADD PUSH1 0x40 MSTORE DUP1 PUSH1 0x0 DUP2 MSTORE POP SWAP7 POP SWAP7 POP POP POP POP POP POP JUMPDEST SWAP3 POP SWAP3 SWAP1 POP JUMP JUMPDEST PUSH2 0xC13 PUSH2 0x1299 JUMP JUMPDEST PUSH2 0xC1D PUSH1 0x0 PUSH2 0x1353 JUMP JUMPDEST JUMP JUMPDEST PUSH1 0x0 PUSH2 0xC29 PUSH2 0x1299 JUMP JUMPDEST PUSH1 0x0 DUP4 GT PUSH2 0xC79 JUMPI PUSH1 0x40 MLOAD PUSH3 0x461BCD PUSH1 0xE5 SHL DUP2 MSTORE PUSH1 0x20 PUSH1 0x4 DUP3 ADD MSTORE PUSH1 0x1B PUSH1 0x24 DUP3 ADD MSTORE PUSH32 0x436F7374206D7573742062652067726561746572207468616E20300000000000 PUSH1 0x44 DUP3 ADD MSTORE PUSH1 0x64 ADD PUSH2 0x38B JUMP JUMPDEST PUSH1 0x0 DUP3 GT PUSH2 0xCC9 JUMPI PUSH1 0x40 MLOAD PUSH3 0x461BCD PUSH1 0xE5 SHL DUP2 MSTORE PUSH1 0x20 PUSH1 0x4 DUP3 ADD MSTORE PUSH1 0x1F PUSH1 0x24 DUP3 ADD MSTORE PUSH32 0x496E74657276616C206D7573742062652067726561746572207468616E203000 PUSH1 0x44 DUP3 ADD MSTORE PUSH1 0x64 ADD PUSH2 0x38B JUMP JUMPDEST PUSH1 0x2 DUP1 SLOAD SWAP1 PUSH1 0x0 PUSH2 0xCD9 DUP4 PUSH2 0x1A8C JUMP JUMPDEST SWAP1 SWAP2 SSTORE POP POP PUSH1 0x40 DUP1 MLOAD PUSH1 0x80 DUP2 ADD DUP3 MSTORE DUP5 DUP2 MSTORE PUSH1 0x20 DUP1 DUP3 ADD DUP6 DUP2 MSTORE PUSH1 0x1 DUP4 DUP6 ADD DUP2 DUP2 MSTORE PUSH1 0x0 PUSH1 0x60 DUP7 ADD DUP2 DUP2 MSTORE PUSH1 0x2 DUP1 SLOAD DUP4 MSTORE PUSH1 0x4 DUP8 MSTORE SWAP2 DUP9 SWAP1 KECCAK256 SWAP7 MLOAD DUP8 SSTORE SWAP4 MLOAD SWAP3 DUP7 ADD SWAP3 SWAP1 SWAP3 SSTORE MLOAD DUP5 DUP3 ADD DUP1 SLOAD PUSH1 0xFF NOT AND SWAP2 ISZERO ISZERO SWAP2 SWAP1 SWAP2 OR SWAP1 SSTORE SWAP1 MLOAD PUSH1 0x3 SWAP1 SWAP4 ADD SWAP3 SWAP1 SWAP3 SSTORE SWAP1 SLOAD DUP3 MLOAD DUP7 DUP2 MSTORE SWAP2 DUP3 ADD DUP6 SWAP1 MSTORE SWAP2 PUSH32 0xB8FD0A0770E4EC762AB06BB2A301A24760166DB13C987F1B8AD07FBB0D61E0FC SWAP2 ADD PUSH1 0x40 MLOAD DUP1 SWAP2 SUB SWAP1 LOG2 POP PUSH1 0x2 SLOAD JUMPDEST SWAP3 SWAP2 POP POP JUMP JUMPDEST PUSH1 0x0 DUP1 PUSH1 0x0 DUP1 PUSH1 0x2 SLOAD DUP6 GT ISZERO DUP1 ISZERO PUSH2 0xD99 JUMPI POP PUSH1 0x0 DUP6 GT JUMPDEST PUSH2 0xDB5 JUMPI PUSH1 0x40 MLOAD PUSH3 0x461BCD PUSH1 0xE5 SHL DUP2 MSTORE PUSH1 0x4 ADD PUSH2 0x38B SWAP1 PUSH2 0x1825 JUMP JUMPDEST POP POP POP PUSH1 0x0 SWAP2 DUP3 MSTORE POP PUSH1 0x4 PUSH1 0x20 MSTORE PUSH1 0x40 SWAP1 KECCAK256 DUP1 SLOAD PUSH1 0x1 DUP3 ADD SLOAD PUSH1 0x2 DUP4 ADD SLOAD PUSH1 0x3 SWAP1 SWAP4 ADD SLOAD SWAP2 SWAP4 SWAP1 SWAP3 PUSH1 0xFF AND SWAP2 SWAP1 JUMP JUMPDEST PUSH1 0x0 PUSH1 0x2 SLOAD DUP3 GT ISZERO DUP1 ISZERO PUSH2 0xDF8 JUMPI POP PUSH1 0x0 DUP3 GT JUMPDEST PUSH2 0xE14 JUMPI PUSH1 0x40 MLOAD PUSH3 0x461BCD PUSH1 0xE5 SHL DUP2 MSTORE PUSH1 0x4 ADD PUSH2 0x38B SWAP1 PUSH2 0x1825 JUMP JUMPDEST POP PUSH1 0x1 PUSH1 0x1 PUSH1 0xA0 SHL SUB SWAP2 SWAP1 SWAP2 AND PUSH1 0x0 SWAP1 DUP2 MSTORE PUSH1 0x3 PUSH1 0x20 SWAP1 DUP2 MSTORE PUSH1 0x40 DUP1 DUP4 KECCAK256 SWAP4 DUP4 MSTORE SWAP3 SWAP1 MSTORE KECCAK256 SLOAD SWAP1 JUMP JUMPDEST PUSH2 0xE45 PUSH2 0x1299 JUMP JUMPDEST PUSH1 0x2 SLOAD DUP2 GT ISZERO DUP1 ISZERO PUSH2 0xE57 JUMPI POP PUSH1 0x0 DUP2 GT JUMPDEST PUSH2 0xE73 JUMPI PUSH1 0x40 MLOAD PUSH3 0x461BCD PUSH1 0xE5 SHL DUP2 MSTORE PUSH1 0x4 ADD PUSH2 0x38B SWAP1 PUSH2 0x1825 JUMP JUMPDEST PUSH1 0x0 DUP2 DUP2 MSTORE PUSH1 0x4 PUSH1 0x20 SWAP1 DUP2 MSTORE PUSH1 0x40 SWAP2 DUP3 SWAP1 KECCAK256 PUSH1 0x2 ADD DUP1 SLOAD PUSH1 0xFF DUP1 DUP3 AND ISZERO PUSH1 0xFF NOT SWAP1 SWAP3 AND DUP3 OR SWAP1 SWAP3 SSTORE SWAP3 MLOAD SWAP3 AND ISZERO ISZERO DUP3 MSTORE DUP3 SWAP2 PUSH32 0x9EB8F70F4826BE4F1625E8C63CAB3D68F02A013B0F46EF2D5FF1E520D1F3A21F SWAP2 ADD PUSH1 0x40 MLOAD DUP1 SWAP2 SUB SWAP1 LOG2 POP JUMP JUMPDEST PUSH1 0x0 PUSH2 0xEDD PUSH2 0x1299 JUMP JUMPDEST PUSH1 0x2 SLOAD DUP4 GT ISZERO DUP1 ISZERO PUSH2 0xEEF JUMPI POP PUSH1 0x0 DUP4 GT JUMPDEST PUSH2 0xF0B JUMPI PUSH1 0x40 MLOAD PUSH3 0x461BCD PUSH1 0xE5 SHL DUP2 MSTORE PUSH1 0x4 ADD PUSH2 0x38B SWAP1 PUSH2 0x1825 JUMP JUMPDEST PUSH1 0x0 DUP4 DUP2 MSTORE PUSH1 0x4 PUSH1 0x20 MSTORE PUSH1 0x40 SWAP1 KECCAK256 PUSH1 0x2 ADD SLOAD PUSH1 0xFF AND PUSH2 0xF3C JUMPI PUSH1 0x40 MLOAD PUSH3 0x461BCD PUSH1 0xE5 SHL DUP2 MSTORE PUSH1 0x4 ADD PUSH2 0x38B SWAP1 PUSH2 0x1851 JUMP JUMPDEST PUSH1 0x1 PUSH1 0x1 PUSH1 0xA0 SHL SUB DUP5 AND PUSH1 0x0 SWAP1 DUP2 MSTORE PUSH1 0x3 PUSH1 0x20 SWAP1 DUP2 MSTORE PUSH1 0x40 DUP1 DUP4 KECCAK256 DUP7 DUP5 MSTORE SWAP1 SWAP2 MSTORE SWAP1 KECCAK256 SLOAD DUP3 GT ISZERO PUSH2 0xFA6 JUMPI PUSH1 0x40 MLOAD PUSH3 0x461BCD PUSH1 0xE5 SHL DUP2 MSTORE PUSH1 0x20 PUSH1 0x4 DUP3 ADD MSTORE PUSH1 0x14 PUSH1 0x24 DUP3 ADD MSTORE PUSH20 0x496E73756666696369656E742062616C616E6365 PUSH1 0x60 SHL PUSH1 0x44 DUP3 ADD MSTORE PUSH1 0x64 ADD PUSH2 0x38B JUMP JUMPDEST PUSH1 0x1 PUSH1 0x1 PUSH1 0xA0 SHL SUB DUP5 AND PUSH1 0x0 SWAP1 DUP2 MSTORE PUSH1 0x3 PUSH1 0x20 SWAP1 DUP2 MSTORE PUSH1 0x40 DUP1 DUP4 KECCAK256 DUP7 DUP5 MSTORE SWAP1 SWAP2 MSTORE DUP2 KECCAK256 DUP1 SLOAD DUP5 SWAP3 SWAP1 PUSH2 0xFD9 SWAP1 DUP5 SWAP1 PUSH2 0x1A79 JUMP JUMPDEST SWAP1 SWAP2 SSTORE POP POP PUSH1 0x40 MLOAD DUP3 DUP2 MSTORE DUP4 SWAP1 PUSH1 0x1 PUSH1 0x1 PUSH1 0xA0 SHL SUB DUP7 AND SWAP1 PUSH32 0x23CFA964E3BCDBAA14A806C6691A9BB1D1D719685BE655D2BA2A58CC275A8893 SWAP1 PUSH1 0x20 ADD PUSH1 0x40 MLOAD DUP1 SWAP2 SUB SWAP1 LOG3 POP PUSH1 0x1 SWAP4 SWAP3 POP POP POP JUMP JUMPDEST PUSH2 0x1030 PUSH2 0x1299 JUMP JUMPDEST PUSH1 0x1 PUSH1 0x1 PUSH1 0xA0 SHL SUB DUP2 AND PUSH2 0x1095 JUMPI PUSH1 0x40 MLOAD PUSH3 0x461BCD PUSH1 0xE5 SHL DUP2 MSTORE PUSH1 0x20 PUSH1 0x4 DUP3 ADD MSTORE PUSH1 0x26 PUSH1 0x24 DUP3 ADD MSTORE PUSH32 0x4F776E61626C653A206E6577206F776E657220697320746865207A65726F2061 PUSH1 0x44 DUP3 ADD MSTORE PUSH6 0x646472657373 PUSH1 0xD0 SHL PUSH1 0x64 DUP3 ADD MSTORE PUSH1 0x84 ADD PUSH2 0x38B JUMP JUMPDEST PUSH2 0x109E DUP2 PUSH2 0x1353 JUMP JUMPDEST POP JUMP JUMPDEST PUSH2 0x10A9 PUSH2 0x1299 JUMP JUMPDEST PUSH1 0x1 PUSH1 0x1 PUSH1 0xA0 SHL SUB DUP3 AND PUSH1 0x0 SWAP1 DUP2 MSTORE PUSH1 0x6 PUSH1 0x20 SWAP1 DUP2 MSTORE PUSH1 0x40 DUP1 DUP4 KECCAK256 DUP5 DUP5 MSTORE SWAP1 SWAP2 MSTORE SWAP1 KECCAK256 PUSH1 0x2 ADD SLOAD PUSH1 0xFF AND PUSH2 0x1114 JUMPI PUSH1 0x40 MLOAD PUSH3 0x461BCD PUSH1 0xE5 SHL DUP2 MSTORE PUSH1 0x20 PUSH1 0x4 DUP3 ADD MSTORE PUSH1 0x12 PUSH1 0x24 DUP3 ADD MSTORE PUSH18 0x4E6F20616374697665207363686564756C65 PUSH1 0x70 SHL PUSH1 0x44 DUP3 ADD MSTORE PUSH1 0x64 ADD PUSH2 0x38B JUMP JUMPDEST PUSH1 0x0 JUMPDEST PUSH1 0x7 SLOAD DUP2 LT ISZERO PUSH2 0x1257 JUMPI DUP3 PUSH1 0x1 PUSH1 0x1 PUSH1 0xA0 SHL SUB AND PUSH1 0x7 DUP3 DUP2 SLOAD DUP2 LT PUSH2 0x113E JUMPI PUSH2 0x113E PUSH2 0x1A63 JUMP JUMPDEST PUSH1 0x0 SWAP2 DUP3 MSTORE PUSH1 0x20 SWAP1 SWAP2 KECCAK256 PUSH1 0x2 SWAP1 SWAP2 MUL ADD SLOAD PUSH1 0x1 PUSH1 0x1 PUSH1 0xA0 SHL SUB AND EQ DUP1 ISZERO PUSH2 0x1188 JUMPI POP DUP2 PUSH1 0x7 DUP3 DUP2 SLOAD DUP2 LT PUSH2 0x1174 JUMPI PUSH2 0x1174 PUSH2 0x1A63 JUMP JUMPDEST SWAP1 PUSH1 0x0 MSTORE PUSH1 0x20 PUSH1 0x0 KECCAK256 SWAP1 PUSH1 0x2 MUL ADD PUSH1 0x1 ADD SLOAD EQ JUMPDEST ISZERO PUSH2 0x1245 JUMPI PUSH1 0x7 DUP1 SLOAD PUSH2 0x119D SWAP1 PUSH1 0x1 SWAP1 PUSH2 0x1A79 JUMP JUMPDEST DUP2 SLOAD DUP2 LT PUSH2 0x11AD JUMPI PUSH2 0x11AD PUSH2 0x1A63 JUMP JUMPDEST SWAP1 PUSH1 0x0 MSTORE PUSH1 0x20 PUSH1 0x0 KECCAK256 SWAP1 PUSH1 0x2 MUL ADD PUSH1 0x7 DUP3 DUP2 SLOAD DUP2 LT PUSH2 0x11CE JUMPI PUSH2 0x11CE PUSH2 0x1A63 JUMP JUMPDEST PUSH1 0x0 SWAP2 DUP3 MSTORE PUSH1 0x20 SWAP1 SWAP2 KECCAK256 DUP3 SLOAD PUSH1 0x2 SWAP1 SWAP3 MUL ADD DUP1 SLOAD PUSH1 0x1 PUSH1 0x1 PUSH1 0xA0 SHL SUB NOT AND PUSH1 0x1 PUSH1 0x1 PUSH1 0xA0 SHL SUB SWAP1 SWAP3 AND SWAP2 SWAP1 SWAP2 OR DUP2 SSTORE PUSH1 0x1 SWAP2 DUP3 ADD SLOAD SWAP2 ADD SSTORE PUSH1 0x7 DUP1 SLOAD DUP1 PUSH2 0x1217 JUMPI PUSH2 0x1217 PUSH2 0x1B55 JUMP JUMPDEST PUSH1 0x0 DUP3 DUP2 MSTORE PUSH1 0x20 DUP2 KECCAK256 PUSH1 0x2 PUSH1 0x0 NOT SWAP1 SWAP4 ADD SWAP3 DUP4 MUL ADD DUP1 SLOAD PUSH1 0x1 PUSH1 0x1 PUSH1 0xA0 SHL SUB NOT AND DUP2 SSTORE PUSH1 0x1 ADD SSTORE SWAP1 SSTORE PUSH2 0x1257 JUMP JUMPDEST DUP1 PUSH2 0x124F DUP2 PUSH2 0x1A8C JUMP JUMPDEST SWAP2 POP POP PUSH2 0x1117 JUMP JUMPDEST POP PUSH1 0x1 PUSH1 0x1 PUSH1 0xA0 SHL SUB SWAP1 SWAP2 AND PUSH1 0x0 SWAP1 DUP2 MSTORE PUSH1 0x6 PUSH1 0x20 SWAP1 DUP2 MSTORE PUSH1 0x40 DUP1 DUP4 KECCAK256 SWAP4 DUP4 MSTORE SWAP3 SWAP1 MSTORE SWAP1 DUP2 KECCAK256 DUP2 DUP2 SSTORE PUSH1 0x1 DUP2 ADD DUP3 SWAP1 SSTORE PUSH1 0x2 DUP2 ADD DUP1 SLOAD PUSH1 0xFF NOT AND SWAP1 SSTORE PUSH1 0x3 ADD SSTORE JUMP JUMPDEST PUSH1 0x0 SLOAD PUSH1 0x1 PUSH1 0x1 PUSH1 0xA0 SHL SUB AND CALLER EQ PUSH2 0xC1D JUMPI PUSH1 0x40 MLOAD PUSH3 0x461BCD PUSH1 0xE5 SHL DUP2 MSTORE PUSH1 0x20 PUSH1 0x4 DUP3 ADD DUP2 SWAP1 MSTORE PUSH1 0x24 DUP3 ADD MSTORE PUSH32 0x4F776E61626C653A2063616C6C6572206973206E6F7420746865206F776E6572 PUSH1 0x44 DUP3 ADD MSTORE PUSH1 0x64 ADD PUSH2 0x38B JUMP JUMPDEST PUSH1 0x40 DUP1 MLOAD PUSH1 0x1 PUSH1 0x1 PUSH1 0xA0 SHL SUB DUP6 DUP2 AND PUSH1 0x24 DUP4 ADD MSTORE DUP5 AND PUSH1 0x44 DUP3 ADD MSTORE PUSH1 0x64 DUP1 DUP3 ADD DUP5 SWAP1 MSTORE DUP3 MLOAD DUP1 DUP4 SUB SWAP1 SWAP2 ADD DUP2 MSTORE PUSH1 0x84 SWAP1 SWAP2 ADD SWAP1 SWAP2 MSTORE PUSH1 0x20 DUP2 ADD DUP1 MLOAD PUSH1 0x1 PUSH1 0x1 PUSH1 0xE0 SHL SUB AND PUSH4 0x23B872DD PUSH1 0xE0 SHL OR SWAP1 MSTORE PUSH2 0x134D SWAP1 DUP6 SWAP1 PUSH2 0x13A3 JUMP JUMPDEST POP POP POP POP JUMP JUMPDEST PUSH1 0x0 DUP1 SLOAD PUSH1 0x1 PUSH1 0x1 PUSH1 0xA0 SHL SUB DUP4 DUP2 AND PUSH1 0x1 PUSH1 0x1 PUSH1 0xA0 SHL SUB NOT DUP4 AND DUP2 OR DUP5 SSTORE PUSH1 0x40 MLOAD SWAP2 SWAP1 SWAP3 AND SWAP3 DUP4 SWAP2 PUSH32 0x8BE0079C531659141344CD1FD0A4F28419497F9722A3DAAFE3B4186F6B6457E0 SWAP2 SWAP1 LOG3 POP POP JUMP JUMPDEST PUSH1 0x0 PUSH2 0x13F8 DUP3 PUSH1 0x40 MLOAD DUP1 PUSH1 0x40 ADD PUSH1 0x40 MSTORE DUP1 PUSH1 0x20 DUP2 MSTORE PUSH1 0x20 ADD PUSH32 0x5361666545524332303A206C6F772D6C6576656C2063616C6C206661696C6564 DUP2 MSTORE POP DUP6 PUSH1 0x1 PUSH1 0x1 PUSH1 0xA0 SHL SUB AND PUSH2 0x147D SWAP1 SWAP3 SWAP2 SWAP1 PUSH4 0xFFFFFFFF AND JUMP JUMPDEST SWAP1 POP DUP1 MLOAD PUSH1 0x0 EQ DUP1 PUSH2 0x1419 JUMPI POP DUP1 DUP1 PUSH1 0x20 ADD SWAP1 MLOAD DUP2 ADD SWAP1 PUSH2 0x1419 SWAP2 SWAP1 PUSH2 0x1B6B JUMP JUMPDEST PUSH2 0x1478 JUMPI PUSH1 0x40 MLOAD PUSH3 0x461BCD PUSH1 0xE5 SHL DUP2 MSTORE PUSH1 0x20 PUSH1 0x4 DUP3 ADD MSTORE PUSH1 0x2A PUSH1 0x24 DUP3 ADD MSTORE PUSH32 0x5361666545524332303A204552433230206F7065726174696F6E20646964206E PUSH1 0x44 DUP3 ADD MSTORE PUSH10 0x1BDD081CDD58D8D95959 PUSH1 0xB2 SHL PUSH1 0x64 DUP3 ADD MSTORE PUSH1 0x84 ADD PUSH2 0x38B JUMP JUMPDEST POP POP POP JUMP JUMPDEST PUSH1 0x60 PUSH2 0x148C DUP5 DUP5 PUSH1 0x0 DUP6 PUSH2 0x1494 JUMP JUMPDEST SWAP5 SWAP4 POP POP POP POP JUMP JUMPDEST PUSH1 0x60 DUP3 SELFBALANCE LT ISZERO PUSH2 0x14F5 JUMPI PUSH1 0x40 MLOAD PUSH3 0x461BCD PUSH1 0xE5 SHL DUP2 MSTORE PUSH1 0x20 PUSH1 0x4 DUP3 ADD MSTORE PUSH1 0x26 PUSH1 0x24 DUP3 ADD MSTORE PUSH32 0x416464726573733A20696E73756666696369656E742062616C616E636520666F PUSH1 0x44 DUP3 ADD MSTORE PUSH6 0x1C8818D85B1B PUSH1 0xD2 SHL PUSH1 0x64 DUP3 ADD MSTORE PUSH1 0x84 ADD PUSH2 0x38B JUMP JUMPDEST PUSH1 0x0 DUP1 DUP7 PUSH1 0x1 PUSH1 0x1 PUSH1 0xA0 SHL SUB AND DUP6 DUP8 PUSH1 0x40 MLOAD PUSH2 0x1511 SWAP2 SWAP1 PUSH2 0x1B8D JUMP JUMPDEST PUSH1 0x0 PUSH1 0x40 MLOAD DUP1 DUP4 SUB DUP2 DUP6 DUP8 GAS CALL SWAP3 POP POP POP RETURNDATASIZE DUP1 PUSH1 0x0 DUP2 EQ PUSH2 0x154E JUMPI PUSH1 0x40 MLOAD SWAP2 POP PUSH1 0x1F NOT PUSH1 0x3F RETURNDATASIZE ADD AND DUP3 ADD PUSH1 0x40 MSTORE RETURNDATASIZE DUP3 MSTORE RETURNDATASIZE PUSH1 0x0 PUSH1 0x20 DUP5 ADD RETURNDATACOPY PUSH2 0x1553 JUMP JUMPDEST PUSH1 0x60 SWAP2 POP JUMPDEST POP SWAP2 POP SWAP2 POP PUSH2 0x1564 DUP8 DUP4 DUP4 DUP8 PUSH2 0x156F JUMP JUMPDEST SWAP8 SWAP7 POP POP POP POP POP POP POP JUMP JUMPDEST PUSH1 0x60 DUP4 ISZERO PUSH2 0x15DE JUMPI DUP3 MLOAD PUSH1 0x0 SUB PUSH2 0x15D7 JUMPI PUSH1 0x1 PUSH1 0x1 PUSH1 0xA0 SHL SUB DUP6 AND EXTCODESIZE PUSH2 0x15D7 JUMPI PUSH1 0x40 MLOAD PUSH3 0x461BCD PUSH1 0xE5 SHL DUP2 MSTORE PUSH1 0x20 PUSH1 0x4 DUP3 ADD MSTORE PUSH1 0x1D PUSH1 0x24 DUP3 ADD MSTORE PUSH32 0x416464726573733A2063616C6C20746F206E6F6E2D636F6E7472616374000000 PUSH1 0x44 DUP3 ADD MSTORE PUSH1 0x64 ADD PUSH2 0x38B JUMP JUMPDEST POP DUP2 PUSH2 0x148C JUMP JUMPDEST PUSH2 0x148C DUP4 DUP4 DUP2 MLOAD ISZERO PUSH2 0x15F3 JUMPI DUP2 MLOAD DUP1 DUP4 PUSH1 0x20 ADD REVERT JUMPDEST DUP1 PUSH1 0x40 MLOAD PUSH3 0x461BCD PUSH1 0xE5 SHL DUP2 MSTORE PUSH1 0x4 ADD PUSH2 0x38B SWAP2 SWAP1 PUSH2 0x1BA9 JUMP JUMPDEST DUP1 CALLDATALOAD PUSH1 0x1 PUSH1 0x1 PUSH1 0xA0 SHL SUB DUP2 AND DUP2 EQ PUSH2 0x1624 JUMPI PUSH1 0x0 DUP1 REVERT JUMPDEST SWAP2 SWAP1 POP JUMP JUMPDEST PUSH1 0x0 DUP1 PUSH1 0x40 DUP4 DUP6 SUB SLT ISZERO PUSH2 0x163C JUMPI PUSH1 0x0 DUP1 REVERT JUMPDEST PUSH2 0x1645 DUP4 PUSH2 0x160D JUMP JUMPDEST SWAP5 PUSH1 0x20 SWAP4 SWAP1 SWAP4 ADD CALLDATALOAD SWAP4 POP POP POP JUMP JUMPDEST PUSH1 0x0 DUP1 PUSH1 0x0 DUP1 PUSH1 0x80 DUP6 DUP8 SUB SLT ISZERO PUSH2 0x1669 JUMPI PUSH1 0x0 DUP1 REVERT JUMPDEST PUSH2 0x1672 DUP6 PUSH2 0x160D JUMP JUMPDEST SWAP7 PUSH1 0x20 DUP7 ADD CALLDATALOAD SWAP7 POP PUSH1 0x40 DUP7 ADD CALLDATALOAD SWAP6 PUSH1 0x60 ADD CALLDATALOAD SWAP5 POP SWAP3 POP POP POP JUMP JUMPDEST PUSH1 0x0 PUSH1 0x20 DUP3 DUP5 SUB SLT ISZERO PUSH2 0x169E JUMPI PUSH1 0x0 DUP1 REVERT JUMPDEST POP CALLDATALOAD SWAP2 SWAP1 POP JUMP JUMPDEST PUSH1 0x0 DUP1 PUSH1 0x20 DUP4 DUP6 SUB SLT ISZERO PUSH2 0x16B8 JUMPI PUSH1 0x0 DUP1 REVERT JUMPDEST DUP3 CALLDATALOAD PUSH8 0xFFFFFFFFFFFFFFFF DUP1 DUP3 GT ISZERO PUSH2 0x16D0 JUMPI PUSH1 0x0 DUP1 REVERT JUMPDEST DUP2 DUP6 ADD SWAP2 POP DUP6 PUSH1 0x1F DUP4 ADD SLT PUSH2 0x16E4 JUMPI PUSH1 0x0 DUP1 REVERT JUMPDEST DUP2 CALLDATALOAD DUP2 DUP2 GT ISZERO PUSH2 0x16F3 JUMPI PUSH1 0x0 DUP1 REVERT JUMPDEST DUP7 PUSH1 0x20 DUP3 DUP6 ADD ADD GT ISZERO PUSH2 0x1705 JUMPI PUSH1 0x0 DUP1 REVERT JUMPDEST PUSH1 0x20 SWAP3 SWAP1 SWAP3 ADD SWAP7 SWAP2 SWAP6 POP SWAP1 SWAP4 POP POP POP POP JUMP JUMPDEST PUSH1 0x0 DUP1 PUSH1 0x40 DUP4 DUP6 SUB SLT ISZERO PUSH2 0x172A JUMPI PUSH1 0x0 DUP1 REVERT JUMPDEST DUP3 CALLDATALOAD SWAP2 POP PUSH2 0x173A PUSH1 0x20 DUP5 ADD PUSH2 0x160D JUMP JUMPDEST SWAP1 POP SWAP3 POP SWAP3 SWAP1 POP JUMP JUMPDEST PUSH1 0x0 JUMPDEST DUP4 DUP2 LT ISZERO PUSH2 0x175E JUMPI DUP2 DUP2 ADD MLOAD DUP4 DUP3 ADD MSTORE PUSH1 0x20 ADD PUSH2 0x1746 JUMP JUMPDEST POP POP PUSH1 0x0 SWAP2 ADD MSTORE JUMP JUMPDEST PUSH1 0x0 DUP2 MLOAD DUP1 DUP5 MSTORE PUSH2 0x177F DUP2 PUSH1 0x20 DUP7 ADD PUSH1 0x20 DUP7 ADD PUSH2 0x1743 JUMP JUMPDEST PUSH1 0x1F ADD PUSH1 0x1F NOT AND SWAP3 SWAP1 SWAP3 ADD PUSH1 0x20 ADD SWAP3 SWAP2 POP POP JUMP JUMPDEST DUP3 ISZERO ISZERO DUP2 MSTORE PUSH1 0x40 PUSH1 0x20 DUP3 ADD MSTORE PUSH1 0x0 PUSH2 0x148C PUSH1 0x40 DUP4 ADD DUP5 PUSH2 0x1767 JUMP JUMPDEST PUSH1 0x0 DUP1 PUSH1 0x40 DUP4 DUP6 SUB SLT ISZERO PUSH2 0x17C1 JUMPI PUSH1 0x0 DUP1 REVERT JUMPDEST POP POP DUP1 CALLDATALOAD SWAP3 PUSH1 0x20 SWAP1 SWAP2 ADD CALLDATALOAD SWAP2 POP JUMP JUMPDEST PUSH1 0x0 DUP1 PUSH1 0x0 PUSH1 0x60 DUP5 DUP7 SUB SLT ISZERO PUSH2 0x17E5 JUMPI PUSH1 0x0 DUP1 REVERT JUMPDEST PUSH2 0x17EE DUP5 PUSH2 0x160D JUMP JUMPDEST SWAP6 PUSH1 0x20 DUP6 ADD CALLDATALOAD SWAP6 POP PUSH1 0x40 SWAP1 SWAP5 ADD CALLDATALOAD SWAP4 SWAP3 POP POP POP JUMP JUMPDEST PUSH1 0x0 PUSH1 0x20 DUP3 DUP5 SUB SLT ISZERO PUSH2 0x1815 JUMPI PUSH1 0x0 DUP1 REVERT JUMPDEST PUSH2 0x181E DUP3 PUSH2 0x160D JUMP JUMPDEST SWAP4 SWAP3 POP POP POP JUMP JUMPDEST PUSH1 0x20 DUP1 DUP3 MSTORE PUSH1 0x12 SWAP1 DUP3 ADD MSTORE PUSH18 0x125B9D985B1A59081CD95C9D9A58D9481251 PUSH1 0x72 SHL PUSH1 0x40 DUP3 ADD MSTORE PUSH1 0x60 ADD SWAP1 JUMP JUMPDEST PUSH1 0x20 DUP1 DUP3 MSTORE PUSH1 0x15 SWAP1 DUP3 ADD MSTORE PUSH21 0x53657276696365206973206E6F7420616374697665 PUSH1 0x58 SHL PUSH1 0x40 DUP3 ADD MSTORE PUSH1 0x60 ADD SWAP1 JUMP JUMPDEST PUSH4 0x4E487B71 PUSH1 0xE0 SHL PUSH1 0x0 MSTORE PUSH1 0x11 PUSH1 0x4 MSTORE PUSH1 0x24 PUSH1 0x0 REVERT JUMPDEST DUP1 DUP3 ADD DUP1 DUP3 GT ISZERO PUSH2 0xD7B JUMPI PUSH2 0xD7B PUSH2 0x1880 JUMP JUMPDEST PUSH4 0x4E487B71 PUSH1 0xE0 SHL PUSH1 0x0 MSTORE PUSH1 0x41 PUSH1 0x4 MSTORE PUSH1 0x24 PUSH1 0x0 REVERT JUMPDEST PUSH1 0x40 MLOAD PUSH1 0x1F DUP3 ADD PUSH1 0x1F NOT AND DUP2 ADD PUSH8 0xFFFFFFFFFFFFFFFF DUP2 GT DUP3 DUP3 LT OR ISZERO PUSH2 0x18E8 JUMPI PUSH2 0x18E8 PUSH2 0x18A9 JUMP JUMPDEST PUSH1 0x40 MSTORE SWAP2 SWAP1 POP JUMP JUMPDEST PUSH1 0x0 PUSH8 0xFFFFFFFFFFFFFFFF DUP3 GT ISZERO PUSH2 0x190A JUMPI PUSH2 0x190A PUSH2 0x18A9 JUMP JUMPDEST POP PUSH1 0x5 SHL PUSH1 0x20 ADD SWAP1 JUMP JUMPDEST PUSH1 0x0 DUP3 PUSH1 0x1F DUP4 ADD SLT PUSH2 0x1925 JUMPI PUSH1 0x0 DUP1 REVERT JUMPDEST DUP2 CALLDATALOAD PUSH1 0x20 PUSH2 0x193A PUSH2 0x1935 DUP4 PUSH2 0x18F0 JUMP JUMPDEST PUSH2 0x18BF JUMP JUMPDEST DUP3 DUP2 MSTORE PUSH1 0x5 SWAP3 SWAP1 SWAP3 SHL DUP5 ADD DUP2 ADD SWAP2 DUP2 DUP2 ADD SWAP1 DUP7 DUP5 GT ISZERO PUSH2 0x1959 JUMPI PUSH1 0x0 DUP1 REVERT JUMPDEST DUP3 DUP7 ADD JUMPDEST DUP5 DUP2 LT ISZERO PUSH2 0x1974 JUMPI DUP1 CALLDATALOAD DUP4 MSTORE SWAP2 DUP4 ADD SWAP2 DUP4 ADD PUSH2 0x195D JUMP JUMPDEST POP SWAP7 SWAP6 POP POP POP POP POP POP JUMP JUMPDEST PUSH1 0x0 DUP1 PUSH1 0x0 PUSH1 0x60 DUP5 DUP7 SUB SLT ISZERO PUSH2 0x1994 JUMPI PUSH1 0x0 DUP1 REVERT JUMPDEST DUP4 CALLDATALOAD PUSH8 0xFFFFFFFFFFFFFFFF DUP1 DUP3 GT ISZERO PUSH2 0x19AC JUMPI PUSH1 0x0 DUP1 REVERT JUMPDEST DUP2 DUP7 ADD SWAP2 POP DUP7 PUSH1 0x1F DUP4 ADD SLT PUSH2 0x19C0 JUMPI PUSH1 0x0 DUP1 REVERT JUMPDEST DUP2 CALLDATALOAD PUSH1 0x20 PUSH2 0x19D0 PUSH2 0x1935 DUP4 PUSH2 0x18F0 JUMP JUMPDEST DUP3 DUP2 MSTORE PUSH1 0x5 SWAP3 SWAP1 SWAP3 SHL DUP5 ADD DUP2 ADD SWAP2 DUP2 DUP2 ADD SWAP1 DUP11 DUP5 GT ISZERO PUSH2 0x19EF JUMPI PUSH1 0x0 DUP1 REVERT JUMPDEST SWAP5 DUP3 ADD SWAP5 JUMPDEST DUP4 DUP7 LT ISZERO PUSH2 0x1A14 JUMPI PUSH2 0x1A05 DUP7 PUSH2 0x160D JUMP JUMPDEST DUP3 MSTORE SWAP5 DUP3 ADD SWAP5 SWAP1 DUP3 ADD SWAP1 PUSH2 0x19F4 JUMP JUMPDEST SWAP8 POP POP DUP8 ADD CALLDATALOAD SWAP3 POP POP DUP1 DUP3 GT ISZERO PUSH2 0x1A2A JUMPI PUSH1 0x0 DUP1 REVERT JUMPDEST PUSH2 0x1A36 DUP8 DUP4 DUP9 ADD PUSH2 0x1914 JUMP JUMPDEST SWAP4 POP PUSH1 0x40 DUP7 ADD CALLDATALOAD SWAP2 POP DUP1 DUP3 GT ISZERO PUSH2 0x1A4C JUMPI PUSH1 0x0 DUP1 REVERT JUMPDEST POP PUSH2 0x1A59 DUP7 DUP3 DUP8 ADD PUSH2 0x1914 JUMP JUMPDEST SWAP2 POP POP SWAP3 POP SWAP3 POP SWAP3 JUMP JUMPDEST PUSH4 0x4E487B71 PUSH1 0xE0 SHL PUSH1 0x0 MSTORE PUSH1 0x32 PUSH1 0x4 MSTORE PUSH1 0x24 PUSH1 0x0 REVERT JUMPDEST DUP2 DUP2 SUB DUP2 DUP2 GT ISZERO PUSH2 0xD7B JUMPI PUSH2 0xD7B PUSH2 0x1880 JUMP JUMPDEST PUSH1 0x0 PUSH1 0x1 DUP3 ADD PUSH2 0x1A9E JUMPI PUSH2 0x1A9E PUSH2 0x1880 JUMP JUMPDEST POP PUSH1 0x1 ADD SWAP1 JUMP JUMPDEST PUSH1 0x0 DUP2 MLOAD DUP1 DUP5 MSTORE PUSH1 0x20 DUP1 DUP6 ADD SWAP5 POP DUP1 DUP5 ADD PUSH1 0x0 JUMPDEST DUP4 DUP2 LT ISZERO PUSH2 0x1AD5 JUMPI DUP2 MLOAD DUP8 MSTORE SWAP6 DUP3 ADD SWAP6 SWAP1 DUP3 ADD SWAP1 PUSH1 0x1 ADD PUSH2 0x1AB9 JUMP JUMPDEST POP SWAP5 SWAP6 SWAP5 POP POP POP POP POP JUMP JUMPDEST PUSH1 0x60 DUP1 DUP3 MSTORE DUP5 MLOAD SWAP1 DUP3 ADD DUP2 SWAP1 MSTORE PUSH1 0x0 SWAP1 PUSH1 0x20 SWAP1 PUSH1 0x80 DUP5 ADD SWAP1 DUP3 DUP9 ADD DUP5 JUMPDEST DUP3 DUP2 LT ISZERO PUSH2 0x1B22 JUMPI DUP2 MLOAD PUSH1 0x1 PUSH1 0x1 PUSH1 0xA0 SHL SUB AND DUP5 MSTORE SWAP3 DUP5 ADD SWAP3 SWAP1 DUP5 ADD SWAP1 PUSH1 0x1 ADD PUSH2 0x1AFD JUMP JUMPDEST POP POP POP DUP4 DUP2 SUB DUP3 DUP6 ADD MSTORE PUSH2 0x1B36 DUP2 DUP8 PUSH2 0x1AA5 JUMP JUMPDEST SWAP2 POP POP DUP3 DUP2 SUB PUSH1 0x40 DUP5 ADD MSTORE PUSH2 0x1B4B DUP2 DUP6 PUSH2 0x1AA5 JUMP JUMPDEST SWAP7 SWAP6 POP POP POP POP POP POP JUMP JUMPDEST PUSH4 0x4E487B71 PUSH1 0xE0 SHL PUSH1 0x0 MSTORE PUSH1 0x31 PUSH1 0x4 MSTORE PUSH1 0x24 PUSH1 0x0 REVERT JUMPDEST PUSH1 0x0 PUSH1 0x20 DUP3 DUP5 SUB SLT ISZERO PUSH2 0x1B7D JUMPI PUSH1 0x0 DUP1 REVERT JUMPDEST DUP2 MLOAD DUP1 ISZERO ISZERO DUP2 EQ PUSH2 0x181E JUMPI PUSH1 0x0 DUP1 REVERT JUMPDEST PUSH1 0x0 DUP3 MLOAD PUSH2 0x1B9F DUP2 DUP5 PUSH1 0x20 DUP8 ADD PUSH2 0x1743 JUMP JUMPDEST SWAP2 SWAP1 SWAP2 ADD SWAP3 SWAP2 POP POP JUMP JUMPDEST PUSH1 0x20 DUP2 MSTORE PUSH1 0x0 PUSH2 0x181E PUSH1 0x20 DUP4 ADD DUP5 PUSH2 0x1767 JUMP INVALID LOG2 PUSH5 0x6970667358 0x22 SLT KECCAK256 STOP SLT PUSH24 0x5544334D764908E02519F14FB432612BC5F7B651F9FD449C PUSH16 0xAC64E86C64736F6C6343000814003300 "},"methodIdentifiers":{"USDC_SEPOLIA()":"430c1274","activeSchedules(uint256)":"40da490f","addToService(uint256,address)":"52293821","cancelScheduledDeduction(address,uint256)":"fcf40496","checkUpkeep(bytes)":"6e04ff0d","deductBalance(address,uint256,uint256)":"c1da8b50","deductionSchedules(address,uint256)":"0970af26","getServiceInfo(uint256)":"82a8ea58","getUserBalance(address,uint256)":"91a9648a","hasUserJoined(address,uint256)":"cf9f7dbf","owner()":"8da5cb5b","performUpkeep(bytes)":"4585e33b","registerService(uint256,uint256)":"773ab5a9","renounceOwnership()":"715018a6","scheduleDeduction(address,uint256,uint256,uint256)":"19da4b84","toggleServiceActive(uint256)":"9e7dbe85","topAccAddress()":"fc2e6374","transferOwnership(address)":"f2fde38b"}}}}}