{
  "_format": "hh-sol-artifact-1",
  "contractName": "AddService",
  "sourceName": "contracts/services/AddService.sol",
  "abi": [
    {
      "inputs": [],
      "stateMutability": "nonpayable",
      "type": "constructor"
    },
    {
      "anonymous": false,
      "inputs": [
        {
          "indexed": true,
          "internalType": "address",
          "name": "user",
          "type": "address"
        },
        {
          "indexed": true,
          "internalType": "uint256",
          "name": "serviceId",
          "type": "uint256"
        },
        {
          "indexed": false,
          "internalType": "uint256",
          "name": "amount",
          "type": "uint256"
        }
      ],
      "name": "BalanceDeducted",
      "type": "event"
    },
    {
      "anonymous": false,
      "inputs": [
        {
          "indexed": true,
          "internalType": "address",
          "name": "user",
          "type": "address"
        },
        {
          "indexed": true,
          "internalType": "uint256",
          "name": "serviceId",
          "type": "uint256"
        },
        {
          "indexed": false,
          "internalType": "uint256",
          "name": "amount",
          "type": "uint256"
        }
      ],
      "name": "BalanceDeposited",
      "type": "event"
    },
    {
      "anonymous": false,
      "inputs": [
        {
          "indexed": true,
          "internalType": "address",
          "name": "previousOwner",
          "type": "address"
        },
        {
          "indexed": true,
          "internalType": "address",
          "name": "newOwner",
          "type": "address"
        }
      ],
      "name": "OwnershipTransferred",
      "type": "event"
    },
    {
      "anonymous": false,
      "inputs": [
        {
          "indexed": true,
          "internalType": "address",
          "name": "user",
          "type": "address"
        },
        {
          "indexed": true,
          "internalType": "uint256",
          "name": "serviceId",
          "type": "uint256"
        }
      ],
      "name": "ServiceJoined",
      "type": "event"
    },
    {
      "anonymous": false,
      "inputs": [
        {
          "indexed": true,
          "internalType": "uint256",
          "name": "serviceId",
          "type": "uint256"
        },
        {
          "indexed": false,
          "internalType": "uint256",
          "name": "cost",
          "type": "uint256"
        },
        {
          "indexed": false,
          "internalType": "uint256",
          "name": "interval",
          "type": "uint256"
        }
      ],
      "name": "ServiceRegistered",
      "type": "event"
    },
    {
      "anonymous": false,
      "inputs": [
        {
          "indexed": true,
          "internalType": "uint256",
          "name": "serviceId",
          "type": "uint256"
        },
        {
          "indexed": false,
          "internalType": "bool",
          "name": "isActive",
          "type": "bool"
        }
      ],
      "name": "ServiceStatusToggled",
      "type": "event"
    },
    {
      "anonymous": false,
      "inputs": [
        {
          "indexed": true,
          "internalType": "address",
          "name": "newTopAccAddress",
          "type": "address"
        }
      ],
      "name": "TopAccAddressUpdated",
      "type": "event"
    },
    {
      "inputs": [],
      "name": "USDC_SEPOLIA",
      "outputs": [
        {
          "internalType": "address",
          "name": "",
          "type": "address"
        }
      ],
      "stateMutability": "view",
      "type": "function"
    },
    {
      "inputs": [
        {
          "internalType": "uint256",
          "name": "serviceId",
          "type": "uint256"
        },
        {
          "internalType": "address",
          "name": "user",
          "type": "address"
        }
      ],
      "name": "addToService",
      "outputs": [],
      "stateMutability": "nonpayable",
      "type": "function"
    },
    {
      "inputs": [
        {
          "internalType": "address",
          "name": "user",
          "type": "address"
        },
        {
          "internalType": "uint256",
          "name": "serviceId",
          "type": "uint256"
        },
        {
          "internalType": "uint256",
          "name": "amount",
          "type": "uint256"
        }
      ],
      "name": "deductBalance",
      "outputs": [
        {
          "internalType": "bool",
          "name": "",
          "type": "bool"
        }
      ],
      "stateMutability": "nonpayable",
      "type": "function"
    },
    {
      "inputs": [
        {
          "internalType": "uint256",
          "name": "serviceId",
          "type": "uint256"
        }
      ],
      "name": "getServiceInfo",
      "outputs": [
        {
          "internalType": "uint256",
          "name": "cost",
          "type": "uint256"
        },
        {
          "internalType": "uint256",
          "name": "interval",
          "type": "uint256"
        },
        {
          "internalType": "bool",
          "name": "isActive",
          "type": "bool"
        },
        {
          "internalType": "uint256",
          "name": "totalSubscribers",
          "type": "uint256"
        }
      ],
      "stateMutability": "view",
      "type": "function"
    },
    {
      "inputs": [
        {
          "internalType": "address",
          "name": "user",
          "type": "address"
        },
        {
          "internalType": "uint256",
          "name": "serviceId",
          "type": "uint256"
        }
      ],
      "name": "getUserBalance",
      "outputs": [
        {
          "internalType": "uint256",
          "name": "",
          "type": "uint256"
        }
      ],
      "stateMutability": "view",
      "type": "function"
    },
    {
      "inputs": [
        {
          "internalType": "address",
          "name": "user",
          "type": "address"
        },
        {
          "internalType": "uint256",
          "name": "serviceId",
          "type": "uint256"
        }
      ],
      "name": "hasUserJoined",
      "outputs": [
        {
          "internalType": "bool",
          "name": "",
          "type": "bool"
        }
      ],
      "stateMutability": "view",
      "type": "function"
    },
    {
      "inputs": [],
      "name": "owner",
      "outputs": [
        {
          "internalType": "address",
          "name": "",
          "type": "address"
        }
      ],
      "stateMutability": "view",
      "type": "function"
    },
    {
      "inputs": [
        {
          "internalType": "uint256",
          "name": "cost",
          "type": "uint256"
        },
        {
          "internalType": "uint256",
          "name": "interval",
          "type": "uint256"
        }
      ],
      "name": "registerService",
      "outputs": [
        {
          "internalType": "uint256",
          "name": "",
          "type": "uint256"
        }
      ],
      "stateMutability": "nonpayable",
      "type": "function"
    },
    {
      "inputs": [],
      "name": "renounceOwnership",
      "outputs": [],
      "stateMutability": "nonpayable",
      "type": "function"
    },
    {
      "inputs": [
        {
          "internalType": "uint256",
          "name": "serviceId",
          "type": "uint256"
        }
      ],
      "name": "toggleServiceActive",
      "outputs": [],
      "stateMutability": "nonpayable",
      "type": "function"
    },
    {
      "inputs": [],
      "name": "topAccAddress",
      "outputs": [
        {
          "internalType": "address",
          "name": "",
          "type": "address"
        }
      ],
      "stateMutability": "view",
      "type": "function"
    },
    {
      "inputs": [
        {
          "internalType": "address",
          "name": "newOwner",
          "type": "address"
        }
      ],
      "name": "transferOwnership",
      "outputs": [],
      "stateMutability": "nonpayable",
      "type": "function"
    }
  ],
  "bytecode": "0x608060405234801561001057600080fd5b5061001a33610024565b6000600255610074565b600080546001600160a01b038381166001600160a01b0319831681178455604051919092169283917f8be0079c531659141344cd1fd0a4f28419497f9722a3daafe3b4186f6b6457e09190a35050565b610e1e806100836000396000f3fe608060405234801561001057600080fd5b50600436106100b45760003560e01c806391a9648a1161007157806391a9648a146101795780639e7dbe851461018c578063c1da8b501461019f578063cf9f7dbf146101c2578063f2fde38b146101fb578063fc2e63741461020e57600080fd5b8063430c1274146100b957806352293821146100f1578063715018a614610106578063773ab5a91461010e57806382a8ea581461012f5780638da5cb5b14610168575b600080fd5b6100d4731c7d4b196cb0c7b01d743fbc6116a902379c723881565b6040516001600160a01b0390911681526020015b60405180910390f35b6101046100ff366004610bec565b610221565b005b61010461039e565b61012161011c366004610c18565b6103b2565b6040519081526020016100e8565b61014261013d366004610c3a565b610514565b6040805194855260208501939093529015159183019190915260608201526080016100e8565b6000546001600160a01b03166100d4565b610121610187366004610c53565b610577565b61010461019a366004610c3a565b6105d0565b6101b26101ad366004610c7d565b610666565b60405190151581526020016100e8565b6101b26101d0366004610c53565b6001600160a01b03919091166000908152600560209081526040808320938352929052205460ff1690565b610104610209366004610cb0565b6107e3565b6001546100d4906001600160a01b031681565b60025482111580156102335750600082115b6102585760405162461bcd60e51b815260040161024f90610cd2565b60405180910390fd5b60008281526004602052604090206002015460ff166102b15760405162461bcd60e51b815260206004820152601560248201527453657276696365206973206e6f742061637469766560581b604482015260640161024f565b600082815260046020526040902054731c7d4b196cb0c7b01d743fbc6116a902379c72386102e18133308561085c565b6001600160a01b038316600090815260036020908152604080832087845290915281208054849290610314908490610d14565b90915550506001600160a01b03831660009081526005602090815260408083208784528252808320805460ff191660011790556004909152812060030180549161035d83610d27565b909155505060405184906001600160a01b038516907fc6402d8b5962c43cd787ebf3c30e80fb508841f89b0f3048dd361d263a3aa56590600090a350505050565b6103a66108bc565b6103b06000610916565b565b60006103bc6108bc565b6000831161040c5760405162461bcd60e51b815260206004820152601b60248201527f436f7374206d7573742062652067726561746572207468616e20300000000000604482015260640161024f565b6000821161045c5760405162461bcd60e51b815260206004820152601f60248201527f496e74657276616c206d7573742062652067726561746572207468616e203000604482015260640161024f565b6002805490600061046c83610d27565b9091555050604080516080810182528481526020808201858152600183850181815260006060860181815260028054835260048752918890209651875593519286019290925551848201805460ff1916911515919091179055905160039093019290925590548251868152918201859052917fb8fd0a0770e4ec762ab06bb2a301a24760166db13c987f1b8ad07fbb0d61e0fc910160405180910390a2506002545b92915050565b600080600080600254851115801561052c5750600085115b6105485760405162461bcd60e51b815260040161024f90610cd2565b5050506000918252506004602052604090208054600182015460028301546003909301549193909260ff169190565b6000600254821115801561058b5750600082115b6105a75760405162461bcd60e51b815260040161024f90610cd2565b506001600160a01b03919091166000908152600360209081526040808320938352929052205490565b6105d86108bc565b60025481111580156105ea5750600081115b6106065760405162461bcd60e51b815260040161024f90610cd2565b600081815260046020908152604091829020600201805460ff8082161560ff199092168217909255925192161515825282917f9eb8f70f4826be4f1625e8c63cab3d68f02a013b0f46ef2d5ff1e520d1f3a21f910160405180910390a250565b60006106706108bc565b60025483111580156106825750600083115b61069e5760405162461bcd60e51b815260040161024f90610cd2565b60008381526004602052604090206002015460ff166106f75760405162461bcd60e51b815260206004820152601560248201527453657276696365206973206e6f742061637469766560581b604482015260640161024f565b6001600160a01b03841660009081526003602090815260408083208684529091529020548211156107615760405162461bcd60e51b8152602060048201526014602482015273496e73756666696369656e742062616c616e636560601b604482015260640161024f565b6001600160a01b038416600090815260036020908152604080832086845290915281208054849290610794908490610d40565b909155505060405182815283906001600160a01b038616907f23cfa964e3bcdbaa14a806c6691a9bb1d1d719685be655d2ba2a58cc275a88939060200160405180910390a35060019392505050565b6107eb6108bc565b6001600160a01b0381166108505760405162461bcd60e51b815260206004820152602660248201527f4f776e61626c653a206e6577206f776e657220697320746865207a65726f206160448201526564647265737360d01b606482015260840161024f565b61085981610916565b50565b604080516001600160a01b0385811660248301528416604482015260648082018490528251808303909101815260849091019091526020810180516001600160e01b03166323b872dd60e01b1790526108b6908590610966565b50505050565b6000546001600160a01b031633146103b05760405162461bcd60e51b815260206004820181905260248201527f4f776e61626c653a2063616c6c6572206973206e6f7420746865206f776e6572604482015260640161024f565b600080546001600160a01b038381166001600160a01b0319831681178455604051919092169283917f8be0079c531659141344cd1fd0a4f28419497f9722a3daafe3b4186f6b6457e09190a35050565b60006109bb826040518060400160405280602081526020017f5361666545524332303a206c6f772d6c6576656c2063616c6c206661696c6564815250856001600160a01b0316610a409092919063ffffffff16565b90508051600014806109dc5750808060200190518101906109dc9190610d53565b610a3b5760405162461bcd60e51b815260206004820152602a60248201527f5361666545524332303a204552433230206f7065726174696f6e20646964206e6044820152691bdd081cdd58d8d9595960b21b606482015260840161024f565b505050565b6060610a4f8484600085610a57565b949350505050565b606082471015610ab85760405162461bcd60e51b815260206004820152602660248201527f416464726573733a20696e73756666696369656e742062616c616e636520666f6044820152651c8818d85b1b60d21b606482015260840161024f565b600080866001600160a01b03168587604051610ad49190610d99565b60006040518083038185875af1925050503d8060008114610b11576040519150601f19603f3d011682016040523d82523d6000602084013e610b16565b606091505b5091509150610b2787838387610b32565b979650505050505050565b60608315610ba1578251600003610b9a576001600160a01b0385163b610b9a5760405162461bcd60e51b815260206004820152601d60248201527f416464726573733a2063616c6c20746f206e6f6e2d636f6e7472616374000000604482015260640161024f565b5081610a4f565b610a4f8383815115610bb65781518083602001fd5b8060405162461bcd60e51b815260040161024f9190610db5565b80356001600160a01b0381168114610be757600080fd5b919050565b60008060408385031215610bff57600080fd5b82359150610c0f60208401610bd0565b90509250929050565b60008060408385031215610c2b57600080fd5b50508035926020909101359150565b600060208284031215610c4c57600080fd5b5035919050565b60008060408385031215610c6657600080fd5b610c6f83610bd0565b946020939093013593505050565b600080600060608486031215610c9257600080fd5b610c9b84610bd0565b95602085013595506040909401359392505050565b600060208284031215610cc257600080fd5b610ccb82610bd0565b9392505050565b602080825260129082015271125b9d985b1a59081cd95c9d9a58d948125160721b604082015260600190565b634e487b7160e01b600052601160045260246000fd5b8082018082111561050e5761050e610cfe565b600060018201610d3957610d39610cfe565b5060010190565b8181038181111561050e5761050e610cfe565b600060208284031215610d6557600080fd5b81518015158114610ccb57600080fd5b60005b83811015610d90578181015183820152602001610d78565b50506000910152565b60008251610dab818460208701610d75565b9190910192915050565b6020815260008251806020840152610dd4816040850160208701610d75565b601f01601f1916919091016040019291505056fea26469706673582212205872ab8bc0beed98acc642e806f996360cb6173fed0b0c5c49c09a94e013babf64736f6c63430008140033",
  "linkReferences": {},
  "deployedLinkReferences": {}
}