{
  "_format": "hh-sol-artifact-1",
  "contractName": "AddService",
  "sourceName": "contracts/services/AddService.sol",
  "abi": [
    {
      "inputs": [],
      "stateMutability": "nonpayable",
      "type": "constructor"
    },
    {
      "anonymous": false,
      "inputs": [
        {
          "indexed": true,
          "internalType": "address",
          "name": "user",
          "type": "address"
        },
        {
          "indexed": true,
          "internalType": "uint256",
          "name": "serviceId",
          "type": "uint256"
        },
        {
          "indexed": false,
          "internalType": "uint256",
          "name": "amount",
          "type": "uint256"
        }
      ],
      "name": "BalanceDeducted",
      "type": "event"
    },
    {
      "anonymous": false,
      "inputs": [
        {
          "indexed": true,
          "internalType": "address",
          "name": "user",
          "type": "address"
        },
        {
          "indexed": true,
          "internalType": "uint256",
          "name": "serviceId",
          "type": "uint256"
        },
        {
          "indexed": false,
          "internalType": "uint256",
          "name": "amount",
          "type": "uint256"
        }
      ],
      "name": "BalanceDeposited",
      "type": "event"
    },
    {
      "anonymous": false,
      "inputs": [
        {
          "indexed": true,
          "internalType": "address",
          "name": "user",
          "type": "address"
        },
        {
          "indexed": true,
          "internalType": "uint256",
          "name": "serviceId",
          "type": "uint256"
        },
        {
          "indexed": false,
          "internalType": "uint256",
          "name": "nextDeduction",
          "type": "uint256"
        }
      ],
      "name": "DeductionScheduled",
      "type": "event"
    },
    {
      "anonymous": false,
      "inputs": [
        {
          "indexed": true,
          "internalType": "address",
          "name": "previousOwner",
          "type": "address"
        },
        {
          "indexed": true,
          "internalType": "address",
          "name": "newOwner",
          "type": "address"
        }
      ],
      "name": "OwnershipTransferred",
      "type": "event"
    },
    {
      "anonymous": false,
      "inputs": [
        {
          "indexed": true,
          "internalType": "address",
          "name": "user",
          "type": "address"
        },
        {
          "indexed": true,
          "internalType": "uint256",
          "name": "serviceId",
          "type": "uint256"
        }
      ],
      "name": "ServiceJoined",
      "type": "event"
    },
    {
      "anonymous": false,
      "inputs": [
        {
          "indexed": true,
          "internalType": "uint256",
          "name": "serviceId",
          "type": "uint256"
        },
        {
          "indexed": false,
          "internalType": "uint256",
          "name": "cost",
          "type": "uint256"
        },
        {
          "indexed": false,
          "internalType": "uint256",
          "name": "interval",
          "type": "uint256"
        }
      ],
      "name": "ServiceRegistered",
      "type": "event"
    },
    {
      "anonymous": false,
      "inputs": [
        {
          "indexed": true,
          "internalType": "uint256",
          "name": "serviceId",
          "type": "uint256"
        },
        {
          "indexed": false,
          "internalType": "bool",
          "name": "isActive",
          "type": "bool"
        }
      ],
      "name": "ServiceStatusToggled",
      "type": "event"
    },
    {
      "anonymous": false,
      "inputs": [
        {
          "indexed": true,
          "internalType": "address",
          "name": "newTopAccAddress",
          "type": "address"
        }
      ],
      "name": "TopAccAddressUpdated",
      "type": "event"
    },
    {
      "inputs": [],
      "name": "USDC_SEPOLIA",
      "outputs": [
        {
          "internalType": "address",
          "name": "",
          "type": "address"
        }
      ],
      "stateMutability": "view",
      "type": "function"
    },
    {
      "inputs": [
        {
          "internalType": "uint256",
          "name": "",
          "type": "uint256"
        }
      ],
      "name": "activeSchedules",
      "outputs": [
        {
          "internalType": "address",
          "name": "user",
          "type": "address"
        },
        {
          "internalType": "uint256",
          "name": "serviceId",
          "type": "uint256"
        }
      ],
      "stateMutability": "view",
      "type": "function"
    },
    {
      "inputs": [
        {
          "internalType": "uint256",
          "name": "serviceId",
          "type": "uint256"
        },
        {
          "internalType": "address",
          "name": "user",
          "type": "address"
        }
      ],
      "name": "addToService",
      "outputs": [],
      "stateMutability": "nonpayable",
      "type": "function"
    },
    {
      "inputs": [
        {
          "internalType": "address",
          "name": "user",
          "type": "address"
        },
        {
          "internalType": "uint256",
          "name": "serviceId",
          "type": "uint256"
        }
      ],
      "name": "cancelScheduledDeduction",
      "outputs": [],
      "stateMutability": "nonpayable",
      "type": "function"
    },
    {
      "inputs": [
        {
          "internalType": "bytes",
          "name": "",
          "type": "bytes"
        }
      ],
      "name": "checkUpkeep",
      "outputs": [
        {
          "internalType": "bool",
          "name": "upkeepNeeded",
          "type": "bool"
        },
        {
          "internalType": "bytes",
          "name": "performData",
          "type": "bytes"
        }
      ],
      "stateMutability": "view",
      "type": "function"
    },
    {
      "inputs": [
        {
          "internalType": "address",
          "name": "user",
          "type": "address"
        },
        {
          "internalType": "uint256",
          "name": "serviceId",
          "type": "uint256"
        },
        {
          "internalType": "uint256",
          "name": "amount",
          "type": "uint256"
        }
      ],
      "name": "deductBalance",
      "outputs": [
        {
          "internalType": "bool",
          "name": "",
          "type": "bool"
        }
      ],
      "stateMutability": "nonpayable",
      "type": "function"
    },
    {
      "inputs": [
        {
          "internalType": "address",
          "name": "",
          "type": "address"
        },
        {
          "internalType": "uint256",
          "name": "",
          "type": "uint256"
        }
      ],
      "name": "deductionSchedules",
      "outputs": [
        {
          "internalType": "uint256",
          "name": "nextDeductionTimestamp",
          "type": "uint256"
        },
        {
          "internalType": "uint256",
          "name": "amount",
          "type": "uint256"
        },
        {
          "internalType": "bool",
          "name": "isActive",
          "type": "bool"
        },
        {
          "internalType": "uint256",
          "name": "interval",
          "type": "uint256"
        }
      ],
      "stateMutability": "view",
      "type": "function"
    },
    {
      "inputs": [
        {
          "internalType": "uint256",
          "name": "serviceId",
          "type": "uint256"
        }
      ],
      "name": "getServiceInfo",
      "outputs": [
        {
          "internalType": "uint256",
          "name": "cost",
          "type": "uint256"
        },
        {
          "internalType": "uint256",
          "name": "interval",
          "type": "uint256"
        },
        {
          "internalType": "bool",
          "name": "isActive",
          "type": "bool"
        },
        {
          "internalType": "uint256",
          "name": "totalSubscribers",
          "type": "uint256"
        }
      ],
      "stateMutability": "view",
      "type": "function"
    },
    {
      "inputs": [
        {
          "internalType": "address",
          "name": "user",
          "type": "address"
        },
        {
          "internalType": "uint256",
          "name": "serviceId",
          "type": "uint256"
        }
      ],
      "name": "getUserBalance",
      "outputs": [
        {
          "internalType": "uint256",
          "name": "",
          "type": "uint256"
        }
      ],
      "stateMutability": "view",
      "type": "function"
    },
    {
      "inputs": [
        {
          "internalType": "address",
          "name": "user",
          "type": "address"
        },
        {
          "internalType": "uint256",
          "name": "serviceId",
          "type": "uint256"
        }
      ],
      "name": "hasUserJoined",
      "outputs": [
        {
          "internalType": "bool",
          "name": "",
          "type": "bool"
        }
      ],
      "stateMutability": "view",
      "type": "function"
    },
    {
      "inputs": [],
      "name": "owner",
      "outputs": [
        {
          "internalType": "address",
          "name": "",
          "type": "address"
        }
      ],
      "stateMutability": "view",
      "type": "function"
    },
    {
      "inputs": [
        {
          "internalType": "bytes",
          "name": "performData",
          "type": "bytes"
        }
      ],
      "name": "performUpkeep",
      "outputs": [],
      "stateMutability": "nonpayable",
      "type": "function"
    },
    {
      "inputs": [
        {
          "internalType": "uint256",
          "name": "cost",
          "type": "uint256"
        },
        {
          "internalType": "uint256",
          "name": "interval",
          "type": "uint256"
        }
      ],
      "name": "registerService",
      "outputs": [
        {
          "internalType": "uint256",
          "name": "",
          "type": "uint256"
        }
      ],
      "stateMutability": "nonpayable",
      "type": "function"
    },
    {
      "inputs": [],
      "name": "renounceOwnership",
      "outputs": [],
      "stateMutability": "nonpayable",
      "type": "function"
    },
    {
      "inputs": [
        {
          "internalType": "address",
          "name": "user",
          "type": "address"
        },
        {
          "internalType": "uint256",
          "name": "serviceId",
          "type": "uint256"
        },
        {
          "internalType": "uint256",
          "name": "amount",
          "type": "uint256"
        },
        {
          "internalType": "uint256",
          "name": "intervalInSeconds",
          "type": "uint256"
        }
      ],
      "name": "scheduleDeduction",
      "outputs": [],
      "stateMutability": "nonpayable",
      "type": "function"
    },
    {
      "inputs": [
        {
          "internalType": "uint256",
          "name": "serviceId",
          "type": "uint256"
        }
      ],
      "name": "toggleServiceActive",
      "outputs": [],
      "stateMutability": "nonpayable",
      "type": "function"
    },
    {
      "inputs": [],
      "name": "topAccAddress",
      "outputs": [
        {
          "internalType": "address",
          "name": "",
          "type": "address"
        }
      ],
      "stateMutability": "view",
      "type": "function"
    },
    {
      "inputs": [
        {
          "internalType": "address",
          "name": "newOwner",
          "type": "address"
        }
      ],
      "name": "transferOwnership",
      "outputs": [],
      "stateMutability": "nonpayable",
      "type": "function"
    }
  ],
  "bytecode": "0x608060405234801561001057600080fd5b5061001a33610024565b6000600255610074565b600080546001600160a01b038381166001600160a01b0319831681178455604051919092169283917f8be0079c531659141344cd1fd0a4f28419497f9722a3daafe3b4186f6b6457e09190a35050565b611bf2806100836000396000f3fe608060405234801561001057600080fd5b50600436106101165760003560e01c806382a8ea58116100a2578063c1da8b5011610071578063c1da8b50146102c0578063cf9f7dbf146102e3578063f2fde38b1461031c578063fc2e63741461032f578063fcf404961461034257600080fd5b806382a8ea58146102765780638da5cb5b1461028957806391a9648a1461029a5780639e7dbe85146102ad57600080fd5b80634585e33b116100e95780634585e33b1461020657806352293821146102195780636e04ff0d1461022c578063715018a61461024d578063773ab5a91461025557600080fd5b80630970af261461011b57806319da4b841461018c57806340da490f146101a1578063430c1274146101d3575b600080fd5b610161610129366004611629565b600660209081526000928352604080842090915290825290208054600182015460028301546003909301549192909160ff9091169084565b6040805194855260208501939093529015159183019190915260608201526080015b60405180910390f35b61019f61019a366004611653565b610355565b005b6101b46101af36600461168c565b6105ec565b604080516001600160a01b039093168352602083019190915201610183565b6101ee731c7d4b196cb0c7b01d743fbc6116a902379c723881565b6040516001600160a01b039091168152602001610183565b61019f6102143660046116a5565b610624565b61019f610227366004611717565b610813565b61023f61023a3660046116a5565b61095f565b604051610183929190611793565b61019f610c0b565b6102686102633660046117ae565b610c1f565b604051908152602001610183565b61016161028436600461168c565b610d81565b6000546001600160a01b03166101ee565b6102686102a8366004611629565b610de4565b61019f6102bb36600461168c565b610e3d565b6102d36102ce3660046117d0565b610ed3565b6040519015158152602001610183565b6102d36102f1366004611629565b6001600160a01b03919091166000908152600560209081526040808320938352929052205460ff1690565b61019f61032a366004611803565b611028565b6001546101ee906001600160a01b031681565b61019f610350366004611629565b6110a1565b61035d611299565b600254831115801561036f5750600083115b6103945760405162461bcd60e51b815260040161038b90611825565b60405180910390fd5b60008381526004602052604090206002015460ff166103c55760405162461bcd60e51b815260040161038b90611851565b600081116104155760405162461bcd60e51b815260206004820152601f60248201527f496e74657276616c206d7573742062652067726561746572207468616e203000604482015260640161038b565b600082116104655760405162461bcd60e51b815260206004820152601d60248201527f416d6f756e74206d7573742062652067726561746572207468616e2030000000604482015260640161038b565b6001600160a01b038416600090815260066020908152604080832086845290915290206002015460ff1661052757604080518082019091526001600160a01b038581168252602082018581526007805460018101825560009190915292517fa66cc928b5edb82af9bd49922954155ab7b0942694bea4ce44661d9a8736c688600290940293840180546001600160a01b0319169190931617909155517fa66cc928b5edb82af9bd49922954155ab7b0942694bea4ce44661d9a8736c689909101555b6040518060800160405280824261053e9190611896565b815260208082018590526001604080840182905260609384018690526001600160a01b0389166000818152600685528281208a8252855282902086518155938601519284019290925584015160028301805460ff1916911515919091179055929091015160039091015583907f8d24538ca0444c131049a15bc87a3ed3221d7eff59c510a645b546a973e841636105d58442611896565b60405190815260200160405180910390a350505050565b600781815481106105fc57600080fd5b6000918252602090912060029091020180546001909101546001600160a01b03909116915082565b600080806106348486018661197f565b92509250925060005b835181101561080b57600084828151811061065a5761065a611a63565b60200260200101519050600084838151811061067857610678611a63565b60200260200101519050600084848151811061069657610696611a63565b6020908102919091018101516001600160a01b03851660009081526006835260408082208683529093529190912060028101549192509060ff1615806106dc5750805442105b156106ea57505050506107f9565b6001600160a01b038416600090815260036020908152604080832086845290915290205482111561076b5760028101805460ff191690556040516000815283906001600160a01b038616907f23cfa964e3bcdbaa14a806c6691a9bb1d1d719685be655d2ba2a58cc275a88939060200160405180910390a3505050506107f9565b6001600160a01b03841660009081526003602090815260408083208684529091528120805484929061079e908490611a79565b909155505060038101546107b29042611896565b815560405182815283906001600160a01b038616907f23cfa964e3bcdbaa14a806c6691a9bb1d1d719685be655d2ba2a58cc275a88939060200160405180910390a3505050505b8061080381611a8c565b91505061063d565b505050505050565b60025482111580156108255750600082115b6108415760405162461bcd60e51b815260040161038b90611825565b60008281526004602052604090206002015460ff166108725760405162461bcd60e51b815260040161038b90611851565b600082815260046020526040902054731c7d4b196cb0c7b01d743fbc6116a902379c72386108a2813330856112f3565b6001600160a01b0383166000908152600360209081526040808320878452909152812080548492906108d5908490611896565b90915550506001600160a01b03831660009081526005602090815260408083208784528252808320805460ff191660011790556004909152812060030180549161091e83611a8c565b909155505060405184906001600160a01b038516907fc6402d8b5962c43cd787ebf3c30e80fb508841f89b0f3048dd361d263a3aa56590600090a350505050565b60408051600a8082526101608201909252600091606091839082602082016101408036833701905050905060008267ffffffffffffffff8111156109a5576109a56118a9565b6040519080825280602002602001820160405280156109ce578160200160208202803683370190505b50905060008367ffffffffffffffff8111156109ec576109ec6118a9565b604051908082528060200260200182016040528015610a15578160200160208202803683370190505b5090506000805b60075481108015610a2c57508582105b15610ba457600060078281548110610a4657610a46611a63565b60009182526020808320604080518082018252600294850290920180546001600160a01b0316808452600191820154848601908152908752600685528287209051875284529481902081516080810183528154815295810154938601939093529282015460ff1615801593850184905260039092015460608501529350610ace575080514210155b15610b8f5760208082015183516001600160a01b03166000908152600383526040808220868501518352909352919091205410610b8f578160000151878581518110610b1c57610b1c611a63565b60200260200101906001600160a01b031690816001600160a01b0316815250508160200151868581518110610b5357610b53611a63565b6020026020010181815250508060200151858581518110610b7657610b76611a63565b602090810291909101015283610b8b81611a8c565b9450505b50508080610b9c90611a8c565b915050610a1c565b508015610be8578084528083528082526001848484604051602001610bcb93929190611ae0565b604051602081830303815290604052965096505050505050610c04565b6000604051806020016040528060008152509650965050505050505b9250929050565b610c13611299565b610c1d6000611353565b565b6000610c29611299565b60008311610c795760405162461bcd60e51b815260206004820152601b60248201527f436f7374206d7573742062652067726561746572207468616e20300000000000604482015260640161038b565b60008211610cc95760405162461bcd60e51b815260206004820152601f60248201527f496e74657276616c206d7573742062652067726561746572207468616e203000604482015260640161038b565b60028054906000610cd983611a8c565b9091555050604080516080810182528481526020808201858152600183850181815260006060860181815260028054835260048752918890209651875593519286019290925551848201805460ff1916911515919091179055905160039093019290925590548251868152918201859052917fb8fd0a0770e4ec762ab06bb2a301a24760166db13c987f1b8ad07fbb0d61e0fc910160405180910390a2506002545b92915050565b6000806000806002548511158015610d995750600085115b610db55760405162461bcd60e51b815260040161038b90611825565b5050506000918252506004602052604090208054600182015460028301546003909301549193909260ff169190565b60006002548211158015610df85750600082115b610e145760405162461bcd60e51b815260040161038b90611825565b506001600160a01b03919091166000908152600360209081526040808320938352929052205490565b610e45611299565b6002548111158015610e575750600081115b610e735760405162461bcd60e51b815260040161038b90611825565b600081815260046020908152604091829020600201805460ff8082161560ff199092168217909255925192161515825282917f9eb8f70f4826be4f1625e8c63cab3d68f02a013b0f46ef2d5ff1e520d1f3a21f910160405180910390a250565b6000610edd611299565b6002548311158015610eef5750600083115b610f0b5760405162461bcd60e51b815260040161038b90611825565b60008381526004602052604090206002015460ff16610f3c5760405162461bcd60e51b815260040161038b90611851565b6001600160a01b0384166000908152600360209081526040808320868452909152902054821115610fa65760405162461bcd60e51b8152602060048201526014602482015273496e73756666696369656e742062616c616e636560601b604482015260640161038b565b6001600160a01b038416600090815260036020908152604080832086845290915281208054849290610fd9908490611a79565b909155505060405182815283906001600160a01b038616907f23cfa964e3bcdbaa14a806c6691a9bb1d1d719685be655d2ba2a58cc275a88939060200160405180910390a35060019392505050565b611030611299565b6001600160a01b0381166110955760405162461bcd60e51b815260206004820152602660248201527f4f776e61626c653a206e6577206f776e657220697320746865207a65726f206160448201526564647265737360d01b606482015260840161038b565b61109e81611353565b50565b6110a9611299565b6001600160a01b038216600090815260066020908152604080832084845290915290206002015460ff166111145760405162461bcd60e51b81526020600482015260126024820152714e6f20616374697665207363686564756c6560701b604482015260640161038b565b60005b60075481101561125757826001600160a01b03166007828154811061113e5761113e611a63565b60009182526020909120600290910201546001600160a01b03161480156111885750816007828154811061117457611174611a63565b906000526020600020906002020160010154145b15611245576007805461119d90600190611a79565b815481106111ad576111ad611a63565b9060005260206000209060020201600782815481106111ce576111ce611a63565b60009182526020909120825460029092020180546001600160a01b0319166001600160a01b03909216919091178155600191820154910155600780548061121757611217611b55565b60008281526020812060026000199093019283020180546001600160a01b0319168155600101559055611257565b8061124f81611a8c565b915050611117565b506001600160a01b0390911660009081526006602090815260408083209383529290529081208181556001810182905560028101805460ff1916905560030155565b6000546001600160a01b03163314610c1d5760405162461bcd60e51b815260206004820181905260248201527f4f776e61626c653a2063616c6c6572206973206e6f7420746865206f776e6572604482015260640161038b565b604080516001600160a01b0385811660248301528416604482015260648082018490528251808303909101815260849091019091526020810180516001600160e01b03166323b872dd60e01b17905261134d9085906113a3565b50505050565b600080546001600160a01b038381166001600160a01b0319831681178455604051919092169283917f8be0079c531659141344cd1fd0a4f28419497f9722a3daafe3b4186f6b6457e09190a35050565b60006113f8826040518060400160405280602081526020017f5361666545524332303a206c6f772d6c6576656c2063616c6c206661696c6564815250856001600160a01b031661147d9092919063ffffffff16565b90508051600014806114195750808060200190518101906114199190611b6b565b6114785760405162461bcd60e51b815260206004820152602a60248201527f5361666545524332303a204552433230206f7065726174696f6e20646964206e6044820152691bdd081cdd58d8d9595960b21b606482015260840161038b565b505050565b606061148c8484600085611494565b949350505050565b6060824710156114f55760405162461bcd60e51b815260206004820152602660248201527f416464726573733a20696e73756666696369656e742062616c616e636520666f6044820152651c8818d85b1b60d21b606482015260840161038b565b600080866001600160a01b031685876040516115119190611b8d565b60006040518083038185875af1925050503d806000811461154e576040519150601f19603f3d011682016040523d82523d6000602084013e611553565b606091505b50915091506115648783838761156f565b979650505050505050565b606083156115de5782516000036115d7576001600160a01b0385163b6115d75760405162461bcd60e51b815260206004820152601d60248201527f416464726573733a2063616c6c20746f206e6f6e2d636f6e7472616374000000604482015260640161038b565b508161148c565b61148c83838151156115f35781518083602001fd5b8060405162461bcd60e51b815260040161038b9190611ba9565b80356001600160a01b038116811461162457600080fd5b919050565b6000806040838503121561163c57600080fd5b6116458361160d565b946020939093013593505050565b6000806000806080858703121561166957600080fd5b6116728561160d565b966020860135965060408601359560600135945092505050565b60006020828403121561169e57600080fd5b5035919050565b600080602083850312156116b857600080fd5b823567ffffffffffffffff808211156116d057600080fd5b818501915085601f8301126116e457600080fd5b8135818111156116f357600080fd5b86602082850101111561170557600080fd5b60209290920196919550909350505050565b6000806040838503121561172a57600080fd5b8235915061173a6020840161160d565b90509250929050565b60005b8381101561175e578181015183820152602001611746565b50506000910152565b6000815180845261177f816020860160208601611743565b601f01601f19169290920160200192915050565b821515815260406020820152600061148c6040830184611767565b600080604083850312156117c157600080fd5b50508035926020909101359150565b6000806000606084860312156117e557600080fd5b6117ee8461160d565b95602085013595506040909401359392505050565b60006020828403121561181557600080fd5b61181e8261160d565b9392505050565b602080825260129082015271125b9d985b1a59081cd95c9d9a58d948125160721b604082015260600190565b60208082526015908201527453657276696365206973206e6f742061637469766560581b604082015260600190565b634e487b7160e01b600052601160045260246000fd5b80820180821115610d7b57610d7b611880565b634e487b7160e01b600052604160045260246000fd5b604051601f8201601f1916810167ffffffffffffffff811182821017156118e8576118e86118a9565b604052919050565b600067ffffffffffffffff82111561190a5761190a6118a9565b5060051b60200190565b600082601f83011261192557600080fd5b8135602061193a611935836118f0565b6118bf565b82815260059290921b8401810191818101908684111561195957600080fd5b8286015b84811015611974578035835291830191830161195d565b509695505050505050565b60008060006060848603121561199457600080fd5b833567ffffffffffffffff808211156119ac57600080fd5b818601915086601f8301126119c057600080fd5b813560206119d0611935836118f0565b82815260059290921b8401810191818101908a8411156119ef57600080fd5b948201945b83861015611a1457611a058661160d565b825294820194908201906119f4565b97505087013592505080821115611a2a57600080fd5b611a3687838801611914565b93506040860135915080821115611a4c57600080fd5b50611a5986828701611914565b9150509250925092565b634e487b7160e01b600052603260045260246000fd5b81810381811115610d7b57610d7b611880565b600060018201611a9e57611a9e611880565b5060010190565b600081518084526020808501945080840160005b83811015611ad557815187529582019590820190600101611ab9565b509495945050505050565b606080825284519082018190526000906020906080840190828801845b82811015611b225781516001600160a01b031684529284019290840190600101611afd565b50505083810382850152611b368187611aa5565b9150508281036040840152611b4b8185611aa5565b9695505050505050565b634e487b7160e01b600052603160045260246000fd5b600060208284031215611b7d57600080fd5b8151801515811461181e57600080fd5b60008251611b9f818460208701611743565b9190910192915050565b60208152600061181e602083018461176756fea26469706673582212200012775544334d764908e02519f14fb432612bc5f7b651f9fd449c6fac64e86c64736f6c63430008140033",
  "linkReferences": {},
  "deployedLinkReferences": {}
}