{
  "_format": "hh-sol-artifact-1",
  "contractName": "TopAcc",
  "sourceName": "contracts/services/TopAcc.sol",
  "abi": [
    {
      "inputs": [
        {
          "internalType": "address",
          "name": "_addServiceAddress",
          "type": "address"
        }
      ],
      "stateMutability": "nonpayable",
      "type": "constructor"
    },
    {
      "anonymous": false,
      "inputs": [
        {
          "indexed": true,
          "internalType": "address",
          "name": "user",
          "type": "address"
        }
      ],
      "name": "AutoPayDisabled",
      "type": "event"
    },
    {
      "anonymous": false,
      "inputs": [
        {
          "indexed": true,
          "internalType": "address",
          "name": "user",
          "type": "address"
        },
        {
          "indexed": false,
          "internalType": "uint256",
          "name": "amount",
          "type": "uint256"
        },
        {
          "indexed": true,
          "internalType": "address",
          "name": "serviceProvider",
          "type": "address"
        }
      ],
      "name": "AutoPayExecuted",
      "type": "event"
    },
    {
      "anonymous": false,
      "inputs": [
        {
          "indexed": true,
          "internalType": "address",
          "name": "user",
          "type": "address"
        },
        {
          "indexed": false,
          "internalType": "uint256",
          "name": "amount",
          "type": "uint256"
        },
        {
          "indexed": false,
          "internalType": "uint256",
          "name": "interval",
          "type": "uint256"
        },
        {
          "indexed": false,
          "internalType": "uint256",
          "name": "service",
          "type": "uint256"
        }
      ],
      "name": "AutoPayRegistered",
      "type": "event"
    },
    {
      "anonymous": false,
      "inputs": [
        {
          "indexed": true,
          "internalType": "address",
          "name": "user",
          "type": "address"
        },
        {
          "indexed": true,
          "internalType": "address",
          "name": "service",
          "type": "address"
        },
        {
          "indexed": false,
          "internalType": "uint256",
          "name": "amount",
          "type": "uint256"
        }
      ],
      "name": "BalanceDeducted",
      "type": "event"
    },
    {
      "anonymous": false,
      "inputs": [
        {
          "indexed": true,
          "internalType": "address",
          "name": "user",
          "type": "address"
        },
        {
          "indexed": false,
          "internalType": "uint256",
          "name": "amount",
          "type": "uint256"
        }
      ],
      "name": "FundsDeposited",
      "type": "event"
    },
    {
      "anonymous": false,
      "inputs": [
        {
          "indexed": true,
          "internalType": "address",
          "name": "user",
          "type": "address"
        },
        {
          "indexed": false,
          "internalType": "uint256",
          "name": "amount",
          "type": "uint256"
        }
      ],
      "name": "FundsWithdrawn",
      "type": "event"
    },
    {
      "anonymous": false,
      "inputs": [
        {
          "indexed": true,
          "internalType": "address",
          "name": "previousOwner",
          "type": "address"
        },
        {
          "indexed": true,
          "internalType": "address",
          "name": "newOwner",
          "type": "address"
        }
      ],
      "name": "OwnershipTransferred",
      "type": "event"
    },
    {
      "anonymous": false,
      "inputs": [
        {
          "indexed": true,
          "internalType": "address",
          "name": "user",
          "type": "address"
        },
        {
          "indexed": true,
          "internalType": "uint256",
          "name": "serviceId",
          "type": "uint256"
        },
        {
          "indexed": false,
          "internalType": "uint256",
          "name": "amount",
          "type": "uint256"
        }
      ],
      "name": "RecurringPaymentProcessed",
      "type": "event"
    },
    {
      "anonymous": false,
      "inputs": [
        {
          "indexed": true,
          "internalType": "address",
          "name": "user",
          "type": "address"
        },
        {
          "indexed": true,
          "internalType": "uint256",
          "name": "serviceId",
          "type": "uint256"
        }
      ],
      "name": "ServiceAuthorizationRevoked",
      "type": "event"
    },
    {
      "anonymous": false,
      "inputs": [
        {
          "indexed": true,
          "internalType": "address",
          "name": "user",
          "type": "address"
        },
        {
          "indexed": true,
          "internalType": "uint256",
          "name": "serviceId",
          "type": "uint256"
        },
        {
          "indexed": false,
          "internalType": "uint256",
          "name": "maxAmount",
          "type": "uint256"
        },
        {
          "indexed": false,
          "internalType": "uint256",
          "name": "interval",
          "type": "uint256"
        }
      ],
      "name": "ServiceAuthorized",
      "type": "event"
    },
    {
      "anonymous": false,
      "inputs": [
        {
          "indexed": true,
          "internalType": "address",
          "name": "user",
          "type": "address"
        },
        {
          "indexed": true,
          "internalType": "uint256",
          "name": "serviceId",
          "type": "uint256"
        },
        {
          "indexed": false,
          "internalType": "uint256",
          "name": "amount",
          "type": "uint256"
        }
      ],
      "name": "ServiceJoined",
      "type": "event"
    },
    {
      "inputs": [],
      "name": "USDC_SEPOLIA",
      "outputs": [
        {
          "internalType": "address",
          "name": "",
          "type": "address"
        }
      ],
      "stateMutability": "view",
      "type": "function"
    },
    {
      "inputs": [
        {
          "internalType": "uint256",
          "name": "",
          "type": "uint256"
        }
      ],
      "name": "_blackList",
      "outputs": [
        {
          "internalType": "bool",
          "name": "",
          "type": "bool"
        }
      ],
      "stateMutability": "view",
      "type": "function"
    },
    {
      "inputs": [
        {
          "internalType": "address",
          "name": "",
          "type": "address"
        },
        {
          "internalType": "uint256",
          "name": "",
          "type": "uint256"
        }
      ],
      "name": "_userBalances",
      "outputs": [
        {
          "internalType": "uint256",
          "name": "",
          "type": "uint256"
        }
      ],
      "stateMutability": "view",
      "type": "function"
    },
    {
      "inputs": [
        {
          "internalType": "uint256",
          "name": "",
          "type": "uint256"
        }
      ],
      "name": "activeAutoPayUsers",
      "outputs": [
        {
          "internalType": "address",
          "name": "",
          "type": "address"
        }
      ],
      "stateMutability": "view",
      "type": "function"
    },
    {
      "inputs": [
        {
          "internalType": "uint256",
          "name": "",
          "type": "uint256"
        }
      ],
      "name": "activeUsers",
      "outputs": [
        {
          "internalType": "address",
          "name": "",
          "type": "address"
        }
      ],
      "stateMutability": "view",
      "type": "function"
    },
    {
      "inputs": [],
      "name": "addServiceAddress",
      "outputs": [
        {
          "internalType": "address",
          "name": "",
          "type": "address"
        }
      ],
      "stateMutability": "view",
      "type": "function"
    },
    {
      "inputs": [
        {
          "internalType": "uint256",
          "name": "serviceId",
          "type": "uint256"
        },
        {
          "internalType": "uint256",
          "name": "maxAmount",
          "type": "uint256"
        },
        {
          "internalType": "uint256",
          "name": "interval",
          "type": "uint256"
        }
      ],
      "name": "authorizeAndJoinService",
      "outputs": [],
      "stateMutability": "nonpayable",
      "type": "function"
    },
    {
      "inputs": [
        {
          "internalType": "address",
          "name": "",
          "type": "address"
        }
      ],
      "name": "autoPayConfigs",
      "outputs": [
        {
          "internalType": "bool",
          "name": "isActive",
          "type": "bool"
        },
        {
          "internalType": "uint256",
          "name": "amount",
          "type": "uint256"
        },
        {
          "internalType": "uint256",
          "name": "interval",
          "type": "uint256"
        },
        {
          "internalType": "uint256",
          "name": "lastPayment",
          "type": "uint256"
        },
        {
          "internalType": "uint256",
          "name": "service",
          "type": "uint256"
        },
        {
          "internalType": "address",
          "name": "serviceProvider",
          "type": "address"
        }
      ],
      "stateMutability": "view",
      "type": "function"
    },
    {
      "inputs": [
        {
          "internalType": "bytes",
          "name": "",
          "type": "bytes"
        }
      ],
      "name": "checkUpkeep",
      "outputs": [
        {
          "internalType": "bool",
          "name": "upkeepNeeded",
          "type": "bool"
        },
        {
          "internalType": "bytes",
          "name": "performData",
          "type": "bytes"
        }
      ],
      "stateMutability": "view",
      "type": "function"
    },
    {
      "inputs": [
        {
          "internalType": "uint256",
          "name": "amount",
          "type": "uint256"
        }
      ],
      "name": "depositFunds",
      "outputs": [],
      "stateMutability": "nonpayable",
      "type": "function"
    },
    {
      "inputs": [],
      "name": "disapproveService",
      "outputs": [],
      "stateMutability": "nonpayable",
      "type": "function"
    },
    {
      "inputs": [],
      "name": "emergencyPause",
      "outputs": [],
      "stateMutability": "nonpayable",
      "type": "function"
    },
    {
      "inputs": [],
      "name": "getActiveAutoPayUsers",
      "outputs": [
        {
          "internalType": "address[]",
          "name": "",
          "type": "address[]"
        }
      ],
      "stateMutability": "view",
      "type": "function"
    },
    {
      "inputs": [
        {
          "internalType": "address",
          "name": "user",
          "type": "address"
        }
      ],
      "name": "getAutoPayConfig",
      "outputs": [
        {
          "components": [
            {
              "internalType": "bool",
              "name": "isActive",
              "type": "bool"
            },
            {
              "internalType": "uint256",
              "name": "amount",
              "type": "uint256"
            },
            {
              "internalType": "uint256",
              "name": "interval",
              "type": "uint256"
            },
            {
              "internalType": "uint256",
              "name": "lastPayment",
              "type": "uint256"
            },
            {
              "internalType": "uint256",
              "name": "service",
              "type": "uint256"
            },
            {
              "internalType": "address",
              "name": "serviceProvider",
              "type": "address"
            }
          ],
          "internalType": "struct TopAcc.AutoPayConfig",
          "name": "",
          "type": "tuple"
        }
      ],
      "stateMutability": "view",
      "type": "function"
    },
    {
      "inputs": [
        {
          "internalType": "uint256",
          "name": "service",
          "type": "uint256"
        }
      ],
      "name": "isBlacklisted",
      "outputs": [
        {
          "internalType": "bool",
          "name": "",
          "type": "bool"
        }
      ],
      "stateMutability": "view",
      "type": "function"
    },
    {
      "inputs": [],
      "name": "owner",
      "outputs": [
        {
          "internalType": "address",
          "name": "",
          "type": "address"
        }
      ],
      "stateMutability": "view",
      "type": "function"
    },
    {
      "inputs": [
        {
          "internalType": "bytes",
          "name": "performData",
          "type": "bytes"
        }
      ],
      "name": "performUpkeep",
      "outputs": [],
      "stateMutability": "nonpayable",
      "type": "function"
    },
    {
      "inputs": [
        {
          "internalType": "address",
          "name": "user",
          "type": "address"
        },
        {
          "internalType": "uint256",
          "name": "serviceId",
          "type": "uint256"
        }
      ],
      "name": "processRecurringPayment",
      "outputs": [],
      "stateMutability": "nonpayable",
      "type": "function"
    },
    {
      "inputs": [],
      "name": "renounceOwnership",
      "outputs": [],
      "stateMutability": "nonpayable",
      "type": "function"
    },
    {
      "inputs": [
        {
          "internalType": "uint256",
          "name": "serviceId",
          "type": "uint256"
        }
      ],
      "name": "revokeServiceAuthorization",
      "outputs": [],
      "stateMutability": "nonpayable",
      "type": "function"
    },
    {
      "inputs": [
        {
          "internalType": "address",
          "name": "",
          "type": "address"
        },
        {
          "internalType": "uint256",
          "name": "",
          "type": "uint256"
        }
      ],
      "name": "serviceAuthorizations",
      "outputs": [
        {
          "internalType": "bool",
          "name": "isAuthorized",
          "type": "bool"
        },
        {
          "internalType": "uint256",
          "name": "maxAmount",
          "type": "uint256"
        },
        {
          "internalType": "uint256",
          "name": "interval",
          "type": "uint256"
        },
        {
          "internalType": "uint256",
          "name": "lastCharge",
          "type": "uint256"
        }
      ],
      "stateMutability": "view",
      "type": "function"
    },
    {
      "inputs": [
        {
          "internalType": "address",
          "name": "_addServiceAddress",
          "type": "address"
        }
      ],
      "name": "setAddServiceAddress",
      "outputs": [],
      "stateMutability": "nonpayable",
      "type": "function"
    },
    {
      "inputs": [
        {
          "internalType": "address",
          "name": "newOwner",
          "type": "address"
        }
      ],
      "name": "transferOwnership",
      "outputs": [],
      "stateMutability": "nonpayable",
      "type": "function"
    },
    {
      "inputs": [
        {
          "internalType": "address",
          "name": "",
          "type": "address"
        }
      ],
      "name": "userBalances",
      "outputs": [
        {
          "internalType": "uint256",
          "name": "",
          "type": "uint256"
        }
      ],
      "stateMutability": "view",
      "type": "function"
    },
    {
      "inputs": [
        {
          "internalType": "uint256",
          "name": "amount",
          "type": "uint256"
        }
      ],
      "name": "withdrawFunds",
      "outputs": [],
      "stateMutability": "nonpayable",
      "type": "function"
    }
  ],
  "bytecode": "0x60806040523480156200001157600080fd5b506040516200244638038062002446833981016040819052620000349162000117565b6200003f33620000c7565b6001600160a01b0381166200009a5760405162461bcd60e51b815260206004820152601a60248201527f496e76616c696420416464536572766963652061646472657373000000000000604482015260640160405180910390fd5b600180546001600160a01b0319166001600160a01b038316179055620000c033620000c7565b5062000149565b600080546001600160a01b038381166001600160a01b0319831681178455604051919092169283917f8be0079c531659141344cd1fd0a4f28419497f9722a3daafe3b4186f6b6457e09190a35050565b6000602082840312156200012a57600080fd5b81516001600160a01b03811681146200014257600080fd5b9392505050565b6122ed80620001596000396000f3fe608060405234801561001057600080fd5b50600436106101735760003560e01c8063803ae518116100de578063c2a9e43f11610097578063ddc0163e11610071578063ddc0163e1461047f578063f2fde38b14610492578063fb475527146104a5578063fc8a6854146104b857600080fd5b8063c2a9e43f14610444578063c39e285214610457578063c420c60c1461046c57600080fd5b8063803ae5181461033b578063822efb131461034e5780638b8c19c9146103b35780638da5cb5b1461041857806390b5ec2a14610429578063a44c5c6d1461043157600080fd5b806351858e271161013057806351858e271461024c578063520bf27e14610254578063609ed258146102dc5780636e04ff0d146102ff578063715018a614610320578063745d27541461032857600080fd5b8063155dd5ee1461017857806326224c641461018d5780633b76594d146101c0578063430c1274146101d35780634585e33b146102065780634752f9ef14610219575b600080fd5b61018b610186366004611e8d565b6104e3565b005b6101ad61019b366004611ec2565b60026020526000908152604090205481565b6040519081526020015b60405180910390f35b61018b6101ce366004611e8d565b6105e6565b6101ee731c7d4b196cb0c7b01d743fbc6116a902379c723881565b6040516001600160a01b0390911681526020016101b7565b61018b610214366004611ee4565b6106ad565b61023c610227366004611e8d565b60009081526007602052604090205460ff1690565b60405190151581526020016101b7565b61018b6107f5565b6102a4610262366004611ec2565b600460208190526000918252604090912080546001820154600283015460038401549484015460059094015460ff90931694919390926001600160a01b031686565b604080519615158752602087019590955293850192909252606084015260808301526001600160a01b031660a082015260c0016101b7565b61023c6102ea366004611e8d565b60076020526000908152604090205460ff1681565b61031261030d366004611ee4565b610878565b6040516101b7929190611fa6565b61018b610b02565b61018b610336366004611fc1565b610b14565b6101ee610349366004611e8d565b610fff565b61036161035c366004611ec2565b611029565b6040516101b791908151151581526020808301519082015260408083015190820152606080830151908201526080808301519082015260a0918201516001600160a01b03169181019190915260c00190565b6103f66103c1366004611fed565b60036020818152600093845260408085209091529183529120805460018201546002830154929093015460ff90911692919084565b60408051941515855260208501939093529183015260608201526080016101b7565b6000546001600160a01b03166101ee565b61018b6110d8565b6101ee61043f366004611e8d565b611282565b61018b610452366004611fed565b611292565b61045f611647565b6040516101b79190612017565b61018b61047a366004611ec2565b6116a9565b61018b61048d366004611e8d565b61171b565b61018b6104a0366004611ec2565b61195c565b6001546101ee906001600160a01b031681565b6101ad6104c6366004611fed565b600860209081526000928352604080842090915290825290205481565b600081116105385760405162461bcd60e51b815260206004820152601d60248201527f416d6f756e74206d7573742062652067726561746572207468616e203000000060448201526064015b60405180910390fd5b336000908152600260205260409020548111156105675760405162461bcd60e51b815260040161052f90612064565b33600090815260026020526040812080548392906105869084906120a8565b90915550731c7d4b196cb0c7b01d743fbc6116a902379c723890506105ac8133846119d5565b60405182815233907feaff4b37086828766ad3268786972c0cd24259d4c87a80f9d3963a3c3d999b0d906020015b60405180910390a25050565b600081116106365760405162461bcd60e51b815260206004820152601d60248201527f416d6f756e74206d7573742062652067726561746572207468616e2030000000604482015260640161052f565b731c7d4b196cb0c7b01d743fbc6116a902379c723861065781333085611a3d565b33600090815260026020526040812080548492906106769084906120c1565b909155505060405182815233907f543ba50a5eec5e6178218e364b1d0f396157b3c8fa278522c2cb7fd99407d474906020016105da565b60006106bb828401846120ea565b905060005b81518110156107ef5760008282815181106106dd576106dd6121af565b6020908102919091018101516001600160a01b03811660009081526004909252604090912080549192509060ff16801561072a57508060020154816003015461072691906120c1565b4210155b8015610761575060018101546001600160a01b03831660009081526008602090815260408083206004860154845290915290205410155b156107da57600581015460018201546107879184916001600160a01b0390911690611a75565b426003820155600581015460018201546040519081526001600160a01b03918216918416907f1e933304589a461ee77abda50d9ed06fe4d859ac63b28dec42e6dca49e16e35d9060200160405180910390a35b505080806107e7906121c5565b9150506106c0565b50505050565b6107fd611b4c565b60005b6006548110156108695760006004600060068481548110610823576108236121af565b6000918252602080832091909101546001600160a01b031683528201929092526040019020805460ff191691151591909117905580610861816121c5565b915050610800565b5061087660066000611e5b565b565b60006060600060068054905067ffffffffffffffff81111561089c5761089c6120d4565b6040519080825280602002602001820160405280156108c5578160200160208202803683370190505b5090506000805b600654811015610a06576000600682815481106108eb576108eb6121af565b60009182526020808320909101546001600160a01b039081168084526004808452604094859020855160c081018752815460ff16158015808352600184015497830197909752600283015497820197909752600382015460608201529181015460808301526005015490921660a083015293509161097c57508060400151816060015161097891906120c1565b4210155b80156109b357506020808201516001600160a01b038416600090815260088352604080822060808601518352909352919091205410155b156109f157818585815181106109cb576109cb6121af565b6001600160a01b0390921660209283029190910190910152836109ed816121c5565b9450505b505080806109fe906121c5565b9150506108cc565b508015610ae25760008167ffffffffffffffff811115610a2857610a286120d4565b604051908082528060200260200182016040528015610a51578160200160208202803683370190505b50905060005b82811015610ab557838181518110610a7157610a716121af565b6020026020010151828281518110610a8b57610a8b6121af565b6001600160a01b039092166020928302919091019091015280610aad816121c5565b915050610a57565b506001945080604051602001610acb9190612017565b604051602081830303815290604052935050610af9565b600093506040518060200160405280600081525092505b50509250929050565b610b0a611b4c565b6108766000611ba6565b60008311610b345760405162461bcd60e51b815260040161052f906121de565b60008211610b8e5760405162461bcd60e51b815260206004820152602160248201527f4d617820616d6f756e74206d7573742062652067726561746572207468616e206044820152600360fc1b606482015260840161052f565b60008111610bde5760405162461bcd60e51b815260206004820152601f60248201527f496e74657276616c206d7573742062652067726561746572207468616e203000604482015260640161052f565b6001546040516310551d4b60e31b8152600481018590526001600160a01b0390911690600090819083906382a8ea5890602401608060405180830381865afa158015610c2e573d6000803e3d6000fd5b505050506040513d601f19601f82011682018060405250810190610c52919061221a565b50925050915080610c9d5760405162461bcd60e51b815260206004820152601560248201527453657276696365206973206e6f742061637469766560581b604482015260640161052f565b81851015610d015760405162461bcd60e51b815260206004820152602b60248201527f4d617820616d6f756e74206d75737420636f766572206174206c65617374206f60448201526a1b99481a5b9d195c9d985b60aa1b606482015260840161052f565b33600090815260026020526040902054821115610d305760405162461bcd60e51b815260040161052f90612064565b3360009081526002602052604081208054849290610d4f9084906120a8565b909155505060015460405163095ea7b360e01b81526001600160a01b03909116600482015260248101839052731c7d4b196cb0c7b01d743fbc6116a902379c72389063095ea7b3906044016020604051808303816000875af1158015610db9573d6000803e3d6000fd5b505050506040513d601f19601f82011682018060405250810190610ddd9190612257565b50604051635229382160e01b8152600481018790523360248201526001600160a01b03841690635229382190604401600060405180830381600087803b158015610e2657600080fd5b505af1158015610e3a573d6000803e3d6000fd5b5050505060405180608001604052806001151581526020018681526020018581526020014281525060036000336001600160a01b03166001600160a01b03168152602001908152602001600020600088815260200190815260200160002060008201518160000160006101000a81548160ff0219169083151502179055506020820151816001015560408201518160020155606082015181600301559050506000805b600554811015610f3957336001600160a01b031660058281548110610f0457610f046121af565b6000918252602090912001546001600160a01b031603610f275760019150610f39565b80610f31816121c5565b915050610edd565b5080610f8257600580546001810182556000919091527f036b6384b5eca791c62761152d0c79bb0604c104a5fb6f4eb0703f3154bb3db00180546001600160a01b031916331790555b6040805187815260208101879052889133917fb85156b373d15d99851d64b2624019b11e1408e525d0d02f2fc25cf437379d14910160405180910390a3604051838152879033907fd994d85dfb35a06ab644b4b856444c02284f3d6d9acb66b57f33b9e80ef2a6a39060200160405180910390a350505050505050565b6005818154811061100f57600080fd5b6000918252602090912001546001600160a01b0316905081565b61106d6040518060c001604052806000151581526020016000815260200160008152602001600081526020016000815260200160006001600160a01b031681525090565b506001600160a01b03908116600090815260046020818152604092839020835160c081018552815460ff16151581526001820154928101929092526002810154938201939093526003830154606082015290820154608082015260059091015490911660a082015290565b3360009081526004602052604090205460ff166111375760405162461bcd60e51b815260206004820152601760248201527f4e6f20616374697665206175746f70617920666f756e64000000000000000000604482015260640161052f565b336000908152600460205260408120805460ff191690555b60065481101561125457336001600160a01b031660068281548110611176576111766121af565b6000918252602090912001546001600160a01b03160361124257600680546111a0906001906120a8565b815481106111b0576111b06121af565b600091825260209091200154600680546001600160a01b0390921691839081106111dc576111dc6121af565b9060005260206000200160006101000a8154816001600160a01b0302191690836001600160a01b03160217905550600680548061121b5761121b612272565b600082815260209020810160001990810180546001600160a01b0319169055019055611254565b8061124c816121c5565b91505061114f565b5060405133907fc2f04e9b4eeb678690a60fbcd2b898e9636503a210994a1ce877bd95ab55f17990600090a2565b6006818154811061100f57600080fd5b600081116112b25760405162461bcd60e51b815260040161052f906121de565b6001600160a01b03821660009081526003602090815260408083208484529091529020805460ff1661131f5760405162461bcd60e51b815260206004820152601660248201527514d95c9d9a58d9481b9bdd08185d5d1a1bdc9a5e995960521b604482015260640161052f565b8060020154816003015461133391906120c1565b4210156113825760405162461bcd60e51b815260206004820152601960248201527f546f6f20736f6f6e20666f72206e657874207061796d656e7400000000000000604482015260640161052f565b6001546040516310551d4b60e31b8152600481018490526001600160a01b0390911690600090819083906382a8ea5890602401608060405180830381865afa1580156113d2573d6000803e3d6000fd5b505050506040513d601f19601f820116820180604052508101906113f6919061221a565b509250509150806114415760405162461bcd60e51b815260206004820152601560248201527453657276696365206973206e6f742061637469766560581b604482015260640161052f565b6001600160a01b0386166000908152600260205260409020548211156114795760405162461bcd60e51b815260040161052f90612064565b83600101548211156114dc5760405162461bcd60e51b815260206004820152602660248201527f5365727669636520636f7374206578636565647320617574686f72697a656420604482015265185b5bdd5b9d60d21b606482015260840161052f565b6001600160a01b038616600090815260026020526040812080548492906115049084906120a8565b909155505042600385015560015460405163095ea7b360e01b81526001600160a01b03909116600482015260248101839052731c7d4b196cb0c7b01d743fbc6116a902379c72389063095ea7b3906044016020604051808303816000875af1158015611574573d6000803e3d6000fd5b505050506040513d601f19601f820116820180604052508101906115989190612257565b50604051635229382160e01b8152600481018690526001600160a01b038781166024830152841690635229382190604401600060405180830381600087803b1580156115e357600080fd5b505af11580156115f7573d6000803e3d6000fd5b5050505084866001600160a01b03167ffe13a3134047216378afce8a55b7de402eb3cfb434456c676efe8fc4a51da68a8460405161163791815260200190565b60405180910390a3505050505050565b6060600680548060200260200160405190810160405280929190818152602001828054801561169f57602002820191906000526020600020905b81546001600160a01b03168152600190910190602001808311611681575b5050505050905090565b6116b1611b4c565b6001600160a01b0381166116f95760405162461bcd60e51b815260206004820152600f60248201526e496e76616c6964206164647265737360881b604482015260640161052f565b600180546001600160a01b0319166001600160a01b0392909216919091179055565b6000811161173b5760405162461bcd60e51b815260040161052f906121de565b33600090815260036020908152604080832084845290915290205460ff1661179e5760405162461bcd60e51b815260206004820152601660248201527514d95c9d9a58d9481b9bdd08185d5d1a1bdc9a5e995960521b604482015260640161052f565b3360009081526003602081815260408084208585529091528220805460ff19168155600181018390556002810183905501819055805b60055481101561192a57336001600160a01b0316600582815481106117fb576117fb6121af565b6000918252602090912001546001600160a01b0316036119185760005b606481101561185f5733600090815260036020908152604080832084845290915290205460ff161561184d576001925061185f565b80611857816121c5565b915050611818565b50816119135760058054611875906001906120a8565b81548110611885576118856121af565b600091825260209091200154600580546001600160a01b0390921691839081106118b1576118b16121af565b9060005260206000200160006101000a8154816001600160a01b0302191690836001600160a01b0316021790555060058054806118f0576118f0612272565b600082815260209020810160001990810180546001600160a01b03191690550190555b61192a565b80611922816121c5565b9150506117d4565b50604051829033907f73d0fe0f2fcdf7575052178f33e5d3a65295b0ae252bddf1d18022648dce1a2d90600090a35050565b611964611b4c565b6001600160a01b0381166119c95760405162461bcd60e51b815260206004820152602660248201527f4f776e61626c653a206e6577206f776e657220697320746865207a65726f206160448201526564647265737360d01b606482015260840161052f565b6119d281611ba6565b50565b6040516001600160a01b038316602482015260448101829052611a3890849063a9059cbb60e01b906064015b60408051601f198184030181529190526020810180516001600160e01b03166001600160e01b031990931692909217909152611bf6565b505050565b6040516001600160a01b03808516602483015283166044820152606481018290526107ef9085906323b872dd60e01b90608401611a01565b6001600160a01b038316600090815260026020526040902054811115611aad5760405162461bcd60e51b815260040161052f90612064565b6001600160a01b03831660009081526002602052604081208054839290611ad59084906120a8565b90915550611afa9050731c7d4b196cb0c7b01d743fbc6116a902379c723883836119d5565b816001600160a01b0316836001600160a01b03167f981166574a146f54057b4cef4f5d0f540f15aa8a6fd05e4c571d89ee3c5e0d7383604051611b3f91815260200190565b60405180910390a3505050565b6000546001600160a01b031633146108765760405162461bcd60e51b815260206004820181905260248201527f4f776e61626c653a2063616c6c6572206973206e6f7420746865206f776e6572604482015260640161052f565b600080546001600160a01b038381166001600160a01b0319831681178455604051919092169283917f8be0079c531659141344cd1fd0a4f28419497f9722a3daafe3b4186f6b6457e09190a35050565b6000611c4b826040518060400160405280602081526020017f5361666545524332303a206c6f772d6c6576656c2063616c6c206661696c6564815250856001600160a01b0316611ccb9092919063ffffffff16565b9050805160001480611c6c575080806020019051810190611c6c9190612257565b611a385760405162461bcd60e51b815260206004820152602a60248201527f5361666545524332303a204552433230206f7065726174696f6e20646964206e6044820152691bdd081cdd58d8d9595960b21b606482015260840161052f565b6060611cda8484600085611ce2565b949350505050565b606082471015611d435760405162461bcd60e51b815260206004820152602660248201527f416464726573733a20696e73756666696369656e742062616c616e636520666f6044820152651c8818d85b1b60d21b606482015260840161052f565b600080866001600160a01b03168587604051611d5f9190612288565b60006040518083038185875af1925050503d8060008114611d9c576040519150601f19603f3d011682016040523d82523d6000602084013e611da1565b606091505b5091509150611db287838387611dbd565b979650505050505050565b60608315611e2c578251600003611e25576001600160a01b0385163b611e255760405162461bcd60e51b815260206004820152601d60248201527f416464726573733a2063616c6c20746f206e6f6e2d636f6e7472616374000000604482015260640161052f565b5081611cda565b611cda8383815115611e415781518083602001fd5b8060405162461bcd60e51b815260040161052f91906122a4565b50805460008255906000526020600020908101906119d291905b80821115611e895760008155600101611e75565b5090565b600060208284031215611e9f57600080fd5b5035919050565b80356001600160a01b0381168114611ebd57600080fd5b919050565b600060208284031215611ed457600080fd5b611edd82611ea6565b9392505050565b60008060208385031215611ef757600080fd5b823567ffffffffffffffff80821115611f0f57600080fd5b818501915085601f830112611f2357600080fd5b813581811115611f3257600080fd5b866020828501011115611f4457600080fd5b60209290920196919550909350505050565b60005b83811015611f71578181015183820152602001611f59565b50506000910152565b60008151808452611f92816020860160208601611f56565b601f01601f19169290920160200192915050565b8215158152604060208201526000611cda6040830184611f7a565b600080600060608486031215611fd657600080fd5b505081359360208301359350604090920135919050565b6000806040838503121561200057600080fd5b61200983611ea6565b946020939093013593505050565b6020808252825182820181905260009190848201906040850190845b818110156120585783516001600160a01b031683529284019291840191600101612033565b50909695505050505050565b602080825260149082015273496e73756666696369656e742062616c616e636560601b604082015260600190565b634e487b7160e01b600052601160045260246000fd5b818103818111156120bb576120bb612092565b92915050565b808201808211156120bb576120bb612092565b634e487b7160e01b600052604160045260246000fd5b600060208083850312156120fd57600080fd5b823567ffffffffffffffff8082111561211557600080fd5b818501915085601f83011261212957600080fd5b81358181111561213b5761213b6120d4565b8060051b604051601f19603f83011681018181108582111715612160576121606120d4565b60405291825284820192508381018501918883111561217e57600080fd5b938501935b828510156121a35761219485611ea6565b84529385019392850192612183565b98975050505050505050565b634e487b7160e01b600052603260045260246000fd5b6000600182016121d7576121d7612092565b5060010190565b602080825260129082015271125b9d985b1a59081cd95c9d9a58d948125160721b604082015260600190565b80518015158114611ebd57600080fd5b6000806000806080858703121561223057600080fd5b84519350602085015192506122476040860161220a565b6060959095015193969295505050565b60006020828403121561226957600080fd5b611edd8261220a565b634e487b7160e01b600052603160045260246000fd5b6000825161229a818460208701611f56565b9190910192915050565b602081526000611edd6020830184611f7a56fea2646970667358221220d5dbff5808870af8225f7e79e75b5bbb1d377a4299c25271c73afbd06694e29c64736f6c63430008140033",
  "linkReferences": {},
  "deployedLinkReferences": {}
}